:020000040000FA
:1000000008170020F100000017010000D5000000D3
:1000100000000000000000000000000000000000E0
:100020000000000000000000000000001B010000B4
:1000300000000000000000001D0100001F01000082
:100040002101000021010000210100002101000028
:1000500021010000F50F0000210100002101000036
:100060002101000021010000210100002101000008
:1000700089830000F98300002101000021010000B4
:1000800021010000210100002101000021010000E8
:1000900021010000210100002101000021010000D8
:1000A00021010000210100002101000021010000C8
:1000B00021010000210100002101000021010000B8
:1000C0000348854600F0C8F9004800476D8F0000DE
:1000D0000817002004207146084202D0EFF309807F
:1000E00001E0EFF308807146004A1047351E00001A
:1000F0000C480D4901600D4901600D4901600D4A30
:100100000D4911600D4A0E491160002101600D4832
:1001100080470D480047FEE7FEE7FEE7FEE7FEE703
:10012000FEE700000001004059000000160000003A
:100130008800000024000040A55A00008002004012
:100140000100000051830000C100000030B50B46E3
:10015000014600202022012409E00D46D5409D42A1
:1001600005D31D469540491B254695404019154627
:10017000521E002DF1DC30BD70B50024254600284C
:1001800001DA01244042002901DA01254942FFF742
:10019000DDFFAC4200D04042002C00D0494270BD8F
:1001A00003460B439B0703D009E008C9121F08C090
:1001B000042AFAD203E00B780370401C491C521E3B
:1001C000F9D2704730B505460020034600E05B1CBD
:1001D000934205D2EC5CC85C201A01D1002CF6D108
:1001E00030BD00000FB400B58DB009900B9010A980
:1001F00000200091C0430A9000200C900648069011
:10020000064807906A4609A80F9900F0F3F80DB068
:1002100008BC04B0184700001504000035040000B5
:10022000FFB50027FF4383B000205C6801909E6803
:100230001D46A9697F1C049888470090296A884751
:100240000028F6D10098401C0CD0032040028443C3
:10025000002E19DD600614D500982B2809D02D2812
:100260000FD103E00020C04307B0F0BD01208002A1
:100270000443A9697F1C04988847761E0090002ECD
:1002800002DD0098302803D00598002825D035E0FD
:10029000012040020443A969761E7F1C0498884708
:1002A0000090002E03DD782805D0582803D005984B
:1002B000002810D022E00598002801D010281DD178
:1002C000012040028443A969761E7F1C0498884758
:1002D0000090102002E0082000E00A2005900DE0C8
:1002E000012149020C43059A0199761E51430818D1
:1002F0000190A9697F1C049888470090002E05DDB5
:100300000599009800F061F80028E9DAE969049895
:100310008847A00502D40120C043A5E7E00722D109
:10032000600611D56005019800D5404229680A1D74
:100330002A600968220501D5087014E0220701D55A
:10034000088010E008600EE02868011D2960006840
:10035000210502D50199017005E02107019901D518
:10036000018000E0016038467EE7F0B51FB4064624
:10037000002082B005464024019100901BE00199C5
:1003800022460F46304600F089F8049A059B801AF1
:10039000994110D310461946224600F06FF8361ADC
:1003A0008F410197224601200021009F00F066F84E
:1003B00038184D4100902046641E0028DFDC019B68
:1003C00000982946324607B0F0BD3A2800D23038AE
:1003D000202302469A43412A01D3104637388842E7
:1003E00001D30020C04370470268137851180160A0
:1003F0001846704710B5D160044951610449116233
:1004000000211161114600F061F810BDE903000000
:10041000BF0400004268002A08D001680B78491C1C
:10042000002B03D0521E06C0184670470121C16040
:10043000881E70474268002A0BD0C3680168002BF1
:1004400007D183688B4204D0491E521C06C000208D
:1004500070470020C0437047064C0125064E05E05A
:10046000E36807CC2B430C3C98471034B442F7D3D5
:10047000FFF72AFE04A6000024A6000010B5202ADB
:1004800004DB0146203A9140002010BD914020231A
:100490009C1A0346E3401943904010BD10B5202A32
:1004A00004DB0846203AD040002110BD0B46D34063
:1004B000D0402024A21A91400843194610BD10B51F
:1004C0000F21C0B2490200F09DF910BDF3B58DB007
:1004D00000200A9001200B90002608460C300C46A4
:1004E00009906269012109989047051E2ED0252D9B
:1004F0002DD0216A8847002818D062690121099807
:100500009047216A88470028F7D1411E62690998FF
:10051000904700E0761CA1690D988847216A8847BA
:100520000028F7D1E1690D988847DAE7A1690D98AD
:1005300088470746A84201D1761CD2E7E1690D98A9
:1005400088477F1C02D10A98002877D049E100270C
:1005500062693D463946099890472A280CD162695C
:10056000012109989047012506E00A214F433F18D1
:10057000303FEBD410200543626901210998904770
:10058000014630390A2903D29B498F42DEDCECE771
:10059000E90600D4994F6C280AD04C2810D068285E
:1005A00024D06A282ED074280CD07A280AD00DE0E6
:1005B00062690121099890476C2823D004211CE02E
:1005C000202005436269012109989047A760656072
:1005D00065284FD026DC582839D01ADC452849D068
:1005E00012DC252834D04128B0D143E062690121D2
:1005F00009989047682802D008210D43E6E70120BA
:10060000C002DEE70220DCE7462833D047282CD1A1
:1006100030E05B2870D061282CD063286CD064282F
:1006200023D161E06F284FD009DC662822D06728EB
:1006300020D0692826D06E2817D12EE0CDE0702872
:100640004DD073286FD075284ED078280DD154E046
:10065000A1690D9888470546252800D16CE7E16916
:100660000D9888476D1C00D16DE7BAE00A224CE076
:100670000A2252E0012023466A46C0430D99C04633
:10068000C046A3E02846402108436060A8072346EF
:1006900001D5002239E000223FE0E80700D020E742
:1006A0002068011D21600068290501D5067018E742
:1006B000290701D5068014E7A90703D5F1170660BD
:1006C00041600EE706600CE7284640210843606061
:1006D000A807234601D5082217E008221DE0484953
:1006E00028460840606016E02846402108436060C4
:1006F000A8072346BCD5B9E715E0284640210843A2
:100700006060A80707D5234610220120C0430D9939
:10071000C046C0465AE0234610220120C0430D992E
:10072000FFF77EFD52E000210C910B4600916328FB
:1007300002D05B2807D043E0E80601D40120A06086
:10074000012000903CE062690121099890475E28F1
:1007500005D101200C9001466269099890472169F2
:10076000002906D10B4601AA8F00491CD351082944
:10077000FADB002835D0216900290ED1C117C90E36
:1007800009184A11930001AA9A1849094901411A06
:1007900001201368884003431360626901210998AE
:1007A00090475D28E5D10C98002808D0002001ABC7
:1007B00081005A58401CD2435A500828F8DB01AB3C
:1007C00001202246C0430D99C046C04600280ADADF
:1007D000401C06D10B98002803D00020C0430FB066
:1007E000F0BD0A98FBE7E90702D10A99491C0A9172
:1007F000361800200B9074E6CCCCCC0CFFFFFF7FAA
:10080000F1F7FFFF7F2801D9002207E0054B4208DE
:100810009A5CC00700D112091207120F0120904004
:10082000084070477CA500007047704710B512481B
:1008300007F0A2FE11A007F09FFE0F4807F09CFEF4
:1008400019A007F099FE1FA007F096FE24A007F05C
:1008500093FE28A007F090FE2BA007F08DFE2EA09F
:1008600007F08AFE31A007F087FE34A007F084FE6F
:10087000014807F081FE10BDBCA5000050726573F1
:100880007320746865206E756D62657220746F20C8
:1008900073746172742072656C6174656420746530
:1008A0007374696E672E0A00312E2054582040322E
:1008B0003430324D487A284C444F292054657374A3
:1008C0000A000000322E2054582040323430324D7D
:1008D000487A28444344432920546573740A00002D
:1008E000332E205258284C444F2920546573740AE3
:1008F00000000000342E205258284443444329204D
:10090000546573740A000000352E20536C656570C1
:1009100020546573740A0000362E204465657020EB
:10092000536C65657020546573740A00372E20522D
:1009300053534920546573740A000000382E203147
:10094000364D487A20434C4B20546573740A00009E
:1009500008B5415C0D2904D00A2902D00020C0430B
:1009600008BD002100916A4605A1FFF73BFC054840
:100970000099C1700178022211430170002008BD66
:10098000256400001000002010B5FFF74FFF10BDD8
:1009900010B50B49087882070CD5FD22104008706D
:1009A000C87806F021FE010005D006A007F0E4FD9E
:1009B000FFF73CFF10BD0BA007F0DEFDF8E70000DD
:1009C00010000020526573756C743A4641494C2002
:1009D0004572726F7220436F64653A20307825301B
:1009E00032780A00526573756C743A504153530A59
:1009F00000000000014A526810470000F802002081
:100A00000148006870470000D402002010B50C486F
:100A10004468002C13D001688C4203D1002141604E
:100A2000016001E0216841602079064950380006E4
:100A3000800D095820468847204600F0A3FA10BDD3
:100A4000B80200209CA20000F8B500F0F1F90446BD
:100A50000125030007F0A0FD0504070A160D150087
:100A600004F04EFB0EE001F0BFFA0BE001F0F6F9E6
:100A700008E000F0EDF9002804D1204600F072FBF8
:100A800000E0092519480168491C016007F0DAFFF8
:100A900000F0DEF9012827D1154CE07E03F0D8FFE5
:100AA00001281FD121460125FB22E039114801F020
:100AB0005EFA2646E03EB1780F4A89005158E07E42
:100AC0008847002810D1B07805280BD13079132839
:100AD00008D1E07E317A000208436946088005208B
:100AE000FFF788FF06F09CFF2846F8BD4C02002067
:100AF000D1120020F012002050A5000010B572B6EF
:100B000008F062F908F04CF908F078F90021192092
:100B1000800106F0B7FB01F0B3F908F081F908F0A5
:100B200079F906F0DDF906F0E9FC62B60024FF2150
:100B3000204608F053F8641C2406240EF7D010BD9C
:100B40000EB509490EC900910192810F8A000293E6
:100B500069468A58054951184A68C306DB0E0120C8
:100B6000984002434A600EBD2C97000000020040EE
:100B700002490A6802430A60704700000002004010
:100B800010B507F09BFB0148006810BD0000002075
:100B900010B507F093FB0448406B41070348490F29
:100BA0000068C84010BD00000002004000000020A6
:100BB00010B507F083FB0448406B4006410F034823
:100BC0000068C84010BD0000000200400000002086
:100BD00008B511A00068114900900968002005229D
:100BE0001204114216D1080301D50D4800E00D484A
:100BF0008A030FD40A04920F6B469B5CCA058904D2
:100C0000D20DC90E891C8008921C59435043FFF72E
:100C10009DFA800008BD000001020204400200406D
:100C2000001BB7000048E80108B511A00068114991
:100C300000900968002005221204114216D1080311
:100C400001D50D4800E00D488A030FD40A04920F25
:100C50006B469B5CCA058904D20DC90E891C8008AD
:100C6000921C59435043FFF771FA800008BD000001
:100C70000102020440020040001BB7000048E801E6
:100C8000F3B5124881B005690F4610200F4C05409E
:100C9000403C2068042630432060102000F098F883
:100CA0002069072108432061206A000900013843B8
:100CB00020622069884301990843206107F0FEFA09
:100CC000002D02D12068B0432060FEBD40020040EC
:100CD000F0B5194B88B0F0CB009401ACE0C478CBF0
:100CE00004AF78C7840A23061B0E0ED003039B0FA4
:100CF0009B0004ADEB58114D5B19E5B28405E40E81
:100D0000A5401C68AC4314431C60420E520710D02F
:100D10008200920F92006B469A58084B103BD218F3
:100D200003015B0FC001C00E834010689843084365
:100D3000106008B0F0BD00000C97000020020040D9
:100D40000649096848430649486100228A6105202E
:100D500008610869C003FCD50A61704704000020DF
:100D600000E000E00649096848430649486100225E
:100D70008A61052008610869C003FCD50A617047D3
:100D80000400002000E000E00649096848430649E5
:100D9000486100228A61052008610869C003FCD50A
:100DA0000A6170470400002000E000E0064909687D
:100DB00048430649486100228A61052008610869A4
:100DC000C003FCD50A6170470400002000E000E089
:100DD00010B504460749084B05E00A46491E002A9B
:100DE00001DC002010BD1A6920469043F5D1012096
:100DF00010BD000080F52000400200400A490A783A
:100E00000A49012A097803D95200921E511889B261
:100E10000F2907D329220F39514389B2814201D3C7
:100E200000207047012070471B0200200C020020A8
:100E30000649002072B6C20052185268002A04D136
:100E400062B6401CC0B20528F4D370478C0E002057
:100E50000348C07EFF2801D0012070470020704762
:100E6000D112002001480078704700000C030020D8
:100E7000F8B5057A8821364A694306468C18C17A46
:100E800014300C36009003292AD0042927D1314888
:100E9000AF00C559042228461E30009901F09BF886
:100EA00029461A31204608225830009101F093F863
:100EB00008223146009801F08EF829462846123162
:100EC000223008F069FAB020287122480021C1516F
:100ED000284607F0CDF92046603008F094FAF8BDB6
:100EE0003046163004F03CFA3146204608220A31DA
:100EF000603001F070F8314620460422123158303B
:100F000001F069F800F0CAF807466E2038713846DB
:100F1000BD720A2231460B3001F05DF804213846DB
:100F200007F0A6F9304608F06EFA2046082231464E
:100F3000683001F050F8204604225C30009901F03E
:100F40004AF82B460C220421304603F023FFF8BD5B
:100F5000840F00204002002072B6002800D0FEE777
:100F600062B6704772B6002808D0054A51688842B8
:100F700004D0016050601078401C107062B6704759
:100F80000C020020002808D0044A5168884204D08E
:100F9000016050601078401C107070470C020020F7
:100FA00010B50146002200290FD0521C0B68D2B2A6
:100FB000002B01D01946F6E772B6044B5C680C6052
:100FC000586018788018187062B610BD0C020020A6
:100FD000074B014600290AD01A78521C1A700A6879
:100FE000002A01D01146F5E75A680A605860704738
:100FF0000C02002008B50648016A090401D5C11396
:1010000001E0016A0091016203F01EFE08BD0000CC
:1010100040410040826901238B409A438261C2694A
:10102000024B8B409A43C2617047000001000100EF
:1010300010B58369140E8C4023438361C369120287
:10104000120A8A401343C36110BDF0B50023012783
:101050003C469C400C4208D005685C000326A64034
:10106000B5431646A640354305605B1C102BEFD3F5
:10107000F0BD000072B6084A506800280AD0117806
:10108000002906D0491E11700168516000210160DD
:1010900000E0002062B670470C0200200649486854
:1010A000002807D00A78521E0A7002684A600021A0
:1010B0000160704772B6FEE70C02002030B4134D99
:1010C0006C68002C1ED000281BD001222146292844
:1010D0000CD9521C0B68D2B2002B05D02938C0B2F3
:1010E00019462928F5D801E029280AD82878D31DDF
:1010F000984206D3801A287008686860002008604B
:1011000000E00024204630BC704700000C020020A4
:1011100030B572B6124D6B68002B1ED000281BD064
:101120000122194607E0521C0C68D2B2002C05D0EF
:1011300029382146C0B22928F5D801E029280BD842
:10114000287814460F34A04206D3801A2870086805
:1011500068600020086000E0002362B6184630BDD9
:101160000C02002010B506F049FC044600796038F6
:101170000106880D03490958204688472046FFF795
:10118000F1FE10BDE8A3000010B5037A002B14D1C6
:101190000A49097801290FD0417A15290CDA052965
:1011A0000AD0132908D101220221093003F0D6FD0B
:1011B000B121002003F038FE00BF10BD840F0020D5
:1011C00070477047704700BF7047000070B572B637
:1011D0001F49497A62B68906890F0BD00C24FFF7A4
:1011E00049FF61210171D3218172C472042107F08A
:1011F00021F870BD00240646164D0836E000001B9D
:10120000295CFC2906D040190722314600F08FFEE8
:10121000002803D0641CE4B2042CEFD3042C0BD1BF
:101220000024E000001B285CFC2807D0641CE4B20A
:10123000042CF6D3042C09D00024D0E7E000001BD6
:1012400040190722314600F092FEF3E70724C6E773
:10125000180200202810002010B572B60E48407AFF
:1012600062B68006800F0BD00C24FFF703FF6121CC
:101270000171D2218172C472042106F0DBFF10BD1E
:101280000020064AFC21C3001B1A401CC0B2D154E6
:101290000428F8D30024E8E71802002028100020D2
:1012A000FEB5044646898089864205D03018460836
:1012B000012006436681A681FFF7DCFE0546214634
:1012C0000C31103006220091029000F050FEA089EF
:1012D0000A214843A081208A2349C0002082277A1E
:1012E000882078434418D521002003F09DFD204636
:1012F000263006220099019000F019FE00282BD01C
:101300001A49002042008A5AB24203D8401CC0B297
:101310000728F7D3401C6873608B3B46001DE882AA
:1013200028460B2200210D3003F018FD6C20287197
:10133000284606220C30029900F040FE0C49EF725C
:10134000B8000D50608B0622001DA08526840099F0
:10135000019800F00CFEFEBDB02028710021284647
:1013600006F068FFFEBD0000840F0020AA9F000069
:10137000400200207047704770B50546FFF77AFEBF
:101380000446A87A2946C01CC2B22046083108305B
:1013900000F0EDFDA87A6072A87A0021072801D834
:1013A00021200155EF202071EA7A2B7A88201D4DEB
:1013B00058434019022A03D1422505708030C1806C
:1013C000184603F045FB002819D01749D8004018EB
:1013D00072B6016800290CD0921E130007F0DCF8E9
:1013E000100B101010102020201010201020202092
:1013F0001020446012E04168216007E062B670BDD1
:101400004268E57AD37AAB4202D322604460F5E7C2
:101410008A4200D104601168216040680460EDE7F1
:101420000C60FBE7840F00207C02002070B50546AD
:10143000FFF720FE04465120207129462046202235
:101440000831083000F093FD204606F003FF70BD20
:10145000F8B5067A882014497043451800275320B0
:10146000475575204755FFF705FE61210171DD21C4
:101470008172C7720673697804464A070D300621E7
:10148000002A06DA0322027041700222334611213B
:1014900003E00170334601220D2103F05FFC0421BB
:1014A000204606F0C7FEF8BD840F002070B5054643
:1014B000FFF7E0FD04465420207129462046112202
:1014C0000831083000F053FD204606F0C3FE70BD21
:1014D00070B50546FFF7CEFD04465220207129461F
:1014E000204600220831083000F041FD204606F079
:1014F000B1FE70BD00BF704710B5FFF7BBFD6121A5
:101500000171C12181720021C1722C2202734173C9
:1015100001218173042106F08DFE10BD10B5FFF787
:10152000A9FD044661202071C620A0720020E0724F
:101530002046082209490C3000F0D8FC0848007801
:101540004006400F072803D1207B4008400020734D
:101550000421204606F06EFE10BD00009A9F000098
:101560000C03002010B50446FFF784FD217A6122A8
:101570000271EB2282720022C272017388225143EF
:10158000084A0323891860314A7F4273897F817337
:10159000042A00D14373042900D18373042106F087
:1015A00049FE10BD840F002070B5044605460C347A
:1015B00008220C49204600F099FC0B4800784006B0
:1015C000400F072803D160784008400060702B7AF4
:1015D00008220E21204603F0C1FBD821002003F091
:1015E00023FC70BD9A9F00000C03002010B5FFF78C
:1015F00041FD61210171D12181720021C17204215B
:10160000017306F017FE10BD70B5057AFFF732FDC5
:10161000044661202071D720A0720020E07225735B
:101620008820454306480522291820460D301431EC
:1016300000F09DFC0421204606F0FCFD70BD00007A
:10164000840F00207047704700BF704700BF70478D
:1016500070B572B61849497A62B68906890F0BD0FF
:101660000C24FFF707FD61210171D4218172C4723E
:10167000042106F0DFFD70BD0024104D064608363B
:10168000E000021BA85CFC2806D050190722314656
:1016900000F04DFC002807D0641CE4B2042CEFD30A
:1016A000042C06D00024DCE7FC20E100091B685470
:1016B000F6E71224D5E700001802002028100020C9
:1016C00010B5144C0146E07A000701D5124801E03C
:1016D00011485C301C3060610A7A0931931DC37770
:1016E00000F045FCFFF7C6FC61210171CA2181723F
:1016F0000021C172042106F09DFD72B6E07A000758
:10170000A07A02D5F721084001E008210843A07221
:1017100062B610BD18020020B40E002070B5234D33
:10172000AA7AD20701D00C2434E00146204C0F22C3
:101730000831201D00F01BFC207A012803D0A1886D
:101740008A00891800E0332161611A49085C012888
:1017500003D1A17A002900D08120617A002901D02B
:10176000402108432072607C124980009C3141185E
:101770000E480422443000F0B9FB72B6E87A8006C5
:10178000A87A02D5DF21084001E020210843A87291
:1017900062B60024FFF76EFC61210171C8218172DD
:1017A000C472042106F046FD70BD0000180200203E
:1017B000100F0020869F0000F8B5007A4649C20746
:1017C000C87A464B5DD0002572B6012862B62CD08F
:1017D000187A07073F0F72B603F0A2FA064662B600
:1017E000012803D1002F10D0012F0ED03A484430E9
:1017F00001783A480170002181613749B0002831F1
:1018000000900858002802D004E00D250DE0FFF7F5
:1018100031FC0446002F21D0012F0AD0B0202071C6
:101820000021204606F006FD002572B6002D21D0CD
:1018300025E02A48807A002800D0012565733C20E5
:10184000A0722649204606220B310E3000F08FFB95
:10185000204606222249143000F048FB6A202071FD
:10186000E672012020731C49009828310C501B4857
:101870004670D9E718480122817A1143817262B615
:101880001FE072B68A7A520852008A7262B6C007A6
:1018900016D15878114A882141437432515C02298B
:1018A0000ED000280CD1012010700B4A00212832E4
:1018B0001068002804D0B0230371116006F0BAFC50
:1018C0000025FFF7D7FB61210171CC218172C57220
:1018D000042106F0AFFCF8BD18020020100F002014
:1018E000F4A0000070B50446FFF7C4FB257A61211F
:1018F0000171EE2181720021C1720573042106F08D
:1019000099FCA089FB2801D9FB20A081E18911481D
:10191000814200D9E081218AFB2906D988210E4A1B
:1019200069438918803189782182618A814200D98E
:1019300060820A49E800401821460C3108220C4612
:1019400000F015FB2B4608221421204603F006FA6E
:1019500070BD000048080000840F0020B002002085
:1019600070B50446FFF786FB61210171EC2181729D
:101970000021C172617A11258A08002A0DD1A27A4C
:1019800093080AD1237A0D4C002B04D0012B0CD0E4
:10199000022B0ED106E0914201D0C57209E06170C0
:1019A000A17006E00029FAD103E0002A01D062709C
:1019B000A270042106F03EFC70BD00003002002041
:1019C00010B50949027A0A70427A4A70807A8870A2
:1019D000FFF750FB61210171C42181720021C172A6
:1019E000042106F027FC10BDF9020020704700001A
:1019F00070B50246067A8820224970434418002EAA
:101A000037D1907A0025810811D1D17A8B080ED177
:101A1000527A002A09D0012A13D0022A0ED0204679
:101A20006030417F8175817F10E0884201D01125AF
:101A30000DE0214660318875C87508E00028F8D1AE
:101A400005E0002903D0204660308175C175ED2185
:101A5000284603F0E9F9002D0BD120466030817D46
:101A6000427F914206D100218175D2B2084603F02F
:101A7000CBF970BD2046334602221621763003F0A2
:101A80006DF970BD840F002010B5134CA27A520777
:101A900001D00C2414E072B6062201460E4808312B
:101AA000533000F064FA72B6E07A8006A07A02D56C
:101AB000DF21084001E020210843A07262B6002423
:101AC000FFF7D8FA61210171C7218172C472042124
:101AD00006F0B0FB10BD00001802002010B5144C39
:101AE0000146E07AC00601D5124801E011485C3099
:101AF0001C3060610A7A2030C277093100F037FA71
:101B0000FFF7B8FA61210171CB2181720021C17206
:101B1000042106F08FFB72B6E07AC006A07A02D5E7
:101B2000EF21084001E010210843A07262B610BD09
:101B300018020020B40E002010B5007A0F49C20729
:101B4000887A72B616D0820707D40D4A0123137023
:101B50009388138102221043887262B6FFF78AFAD3
:101B600061210171CE2181720021C172042106F030
:101B700061FB10BDFD221040EEE7000018020020BE
:101B8000780F0020F8B5044672B61F4FB87A800768
:101B900062B601D50C262BE01C4D214600260422FE
:101BA0000A31A81C00F0E3F9207A6870A07BA871C4
:101BB000E07BE8716888164A904200D96A8068889C
:101BC0008100401881B26980A888904200D9AA801B
:101BD000A88882008018A880081A6880F87A4006D1
:101BE000B87A02D5BF21084001E040210843B8720D
:101BF000FFF740FA61210171CD218172C672042183
:101C000006F018FBF8BD000018020020780F002035
:101C10003333000070B50546FFF72CFA0446532015
:101C20002071294620461B220831083000F09FF918
:101C3000204606F00FFB70BD7047704710B5FFF7E8
:101C400019FA0446062207490C3000F090F9612089
:101C50002071C220A0720020E0720421204606F00C
:101C6000E9FA10BD0E0300207047000010B5FFF721
:101C700001FA0446252210490C3000F037F96120A2
:101C80002071BF20A0720020E0720421204606F0DF
:101C9000D1FAFFF7EFF9084904461B222531093034
:101CA00000F024F9722020711B20207204212046AC
:101CB00006F0C0FA10BD00004CA4000010B5FFF7FC
:101CC000D9F90446082207490C3000F00FF96120C9
:101CD0002071C020A0720020E0720421204606F08E
:101CE000A9FA10BD8CA4000010B5FFF7C3F9044693
:101CF000082207490C3000F0F9F861202071BE205D
:101D0000A0720020E0720421204606F093FA10BD74
:101D1000929F000070B5047A0546002C0FD1B221C5
:101D2000002003F081F80C3505220549284600F013
:101D3000DDF8234605220C21284603F00FF870BD7C
:101D4000819F0000704770477047000010B5047A0B
:101D5000FFF790F961210171C32181720021C172E5
:101D600004730121417388214C4304496118497F60
:101D70008173042106F05EFA10BD0000840F00207C
:101D800010B5FFF777F961210171B421817200214B
:101D9000C172042106F04EFA10BD704710B50D490E
:101DA000027A0A70427A4A70C27A8A70427BCA709A
:101DB000C07B08710820FFF7ABF9002808D061212B
:101DC0000171B32181720021C172042106F032FA3F
:101DD00010BD00000003002010B50749807A08708C
:101DE000FFF748F961210171B92181720021C172A7
:101DF000042106F01FFA10BDF8020020704770475A
:101E0000417A044A89005258037A01460B31184638
:101E100010470000D49E000030B4427A044B920078
:101E20009B58047A0246817A204630BC0B32184710
:101E3000389E0000044603A006F09EFB204607F0F3
:101E400001FCFEE7496E2048617264204661756CB2
:101E5000742048616E646C65720A000010B505F06C
:101E6000CDFD04460079054990380006800D0958DB
:101E7000204688472046FFF775F810BD94A400005F
:101E80000F4A0020342141438B183433401CC0B228
:101E900053502C28F6D334210023484313500948CB
:101EA0002D21426001704370074A1846C10053500B
:101EB0008918401CC0B24B600528F7D3704700005A
:101EC000680500200C0200208C0E002030B4002396
:101ED000002A07D9CC5CC55CAC4203D15B1CDBB2E9
:101EE0009342F7D3D01A30BCC0B27047002A05D055
:101EF000521E1206120E8B5C8354F9D17047002AD1
:101F00000BD010B40023CC5C521ED2B25B1C8454A4
:101F1000DBB2002AF7D110BC70477047002A05D009
:101F2000521E1206120E8B5C8354F9D1704730B4E6
:101F30000023002A07D9CC5CC55CAC4203D15B1CF2
:101F4000DBB29342F7D3D01A30BCC0B2704730B482
:101F50000023002A07D9CC5CC55CAC4203D15B1CD2
:101F6000DBB29342F7D3D01A30BCC0B27047002A1C
:101F700005D0521E1206120E8B5C8354F9D17047A5
:101F8000002A0BD010B40023CC5C521ED2B25B1CD2
:101F90008454DBB2002AF7D110BC70477047002A86
:101FA0000BD010B40023CC5C521ED2B25B1C845404
:101FB000DBB2002AF7D110BC704770470023002A1B
:101FC00008D910B4CC5CC4545B1CDBB29342F9D387
:101FD00010BC70477047002A05D0521E1206120E20
:101FE0008B5C8354F9D1704710B505F007FD0446AA
:101FF0000079054980380006800D09582046884739
:102000002046FEF7AFFF10BDA0A40000F0B50746C4
:10201000C468007A882148436D498DB04518284628
:10202000603007F0E9F92046143029467031052266
:1020300006460C90FFF7CFFF29462046583108226C
:102040001930FFF7C8FFA57A4920694608700020BB
:102050008873CD7331466E460D22701CFFF7BBFFAF
:1020600000205C49325C095C514008AA1154401CB4
:10207000C0B21028F5D3104607F0B2F907F086F980
:10208000102254496846FFF749FF0120694648700D
:10209000787A887008A807F0B6F9002008AF395C94
:1020A000325C51403954401CC0B21028F7D3384636
:1020B00007F096F907F06AF901206A4610740021CA
:1020C0009177D07704A80D2201300C99FFF783FF98
:1020D000102240496846FFF721FF21460B312A466E
:1020E00068460C91FFF777FF08A807F08CF90020ED
:1020F000395C325C51403954401CC0B21028F7D3CF
:1021000008A807F06DF907F041F908A807F07BF976
:1021100004A807F065F907F039F9684607F073F984
:1021200000202118335CCA7A20315A40401CC0B2CA
:102130008A700728F5D360696E46FF220346F1795D
:1021400013434B40214629310B70030A367A13435F
:1021500073404B70030C6E46767A13437340000E47
:102160008B7010436E46B27A5040C870217EF07A70
:1021700041400C98203081700020211833184A7E8D
:102180001B7B20315A40401CC0B28A730428F4D310
:102190000020B077F07704A807F022F907F0F6F8EE
:1021A000684607F030F90020395C325C5140395400
:1021B000401CC0B20428F7D36019042208A92230B9
:1021C000FFF709FF281D2121085565720DB0F0BDEC
:1021D000840F0020F4A00000014610B5183108302B
:1021E00007F0DAF8FEF75AFF044661202071D92083
:1021F000A0720020E07220460C3007F015F904218F
:10220000204606F035F810BDF8B5067A8821134A45
:1022100071438C18214660310D46093007F0BCF837
:10222000FEF73CFF61210171DC2181720027C7723A
:102230000673042106F01CF80022334605211046DF
:1022400002F0A8FD284607F0DEF80548022181715A
:1022500069752767A7672F752F77F8BD840F002052
:102260001802002010B510490830097804460A0702
:102270000E49120F51181022FFF750FE21460A484E
:1022800007F08AF8FEF70AFF044661202071DA2081
:10229000A0720020E07220460C3007F0B4F8042150
:1022A000204605F0E5FF10BD4C02002042A00000D2
:1022B000F8B5044613300090FEF7F0FE06461022F3
:1022C00022300099FFF787FE009803F049F8257A3D
:1022D0003046164EAF00F051FEF7E0FE622101716C
:1022E00000214172DB21C172042105F0C1FF009879
:1022F00007F089F8F0592146093116220C460830BA
:10230000FFF769FE88200A49684340186030407D25
:102310002B46800705D000220A21104602F03AFD24
:10232000F8BD162203212046F8E7000040020020F5
:10233000840F002010B5FEF79DFE61210171E5219B
:1023400081721E21C172042105F074FF10BD10B509
:10235000FEF790FE61210171E42181720121C172B9
:10236000042105F067FF10BDF8B505460746067A5B
:102370008820CA4970434418F97AC9480C350422A8
:1023800040780B0006F008F9190E33323D3D4D51EF
:10239000648295A032A5C582F7F7C4F7F7F6F5E198
:1023A000FB32F7002078562807D1802020707D204E
:1023B000025D31462A2002F027FD214620460622F2
:1023C00026310E30FFF7B3FD00280FD0FEF752FE86
:1023D00004466C2020710622E672E91C20460C306F
:1023E000FFF7C5FD0421204605F024FFF8BD207845
:1023F0005628FBD1812020706034627F31462A202C
:1024000097E0FEF737FE04465520207139462046F6
:102410001A2208310830FFF7AAFD204605F01AFFFE
:10242000F8BD00223346062151E000223346062142
:10243000104602F093FC387B022803D0012231467B
:1024400000207DE0FEF716FE67210171867219E01B
:1024500020784E280ED0562816D028781628DFD19E
:102460006034627F31461A2002F0CEFC0020A07555
:10247000E075F8BD2270FEF7FDFD6D2101711A2196
:102480008172C6720421AFE72270E9E7082285490C
:102490002846FFF72BFD844800784006400F0728A8
:1024A00003D168784008400068700822334609214B
:1024B0002CE0FEF7DFFD04466D2020710020A072A5
:1024C000E6720822294689E7002233460B210020C4
:1024D00052E02078432810D08C280ED073484078E2
:1024E0000007C6D5FEF7C6FD04466520207105220B
:1024F0002046A67229460B3072E76A49052219392F
:102500002846FFF7F3FC052233460C21284633E02A
:102510006D1C207843280FD044280DD0562812D0A7
:1025200028462038C07F1628A3D16034627F2878DF
:10253000314602F069FCF8BD22702878002231464D
:1025400002F044FCF8BD2270EFE729786A78114068
:102550008907890F04D07D22125D9143084001D183
:102560006034607F28700222687033461721CDE7FF
:1025700005E041E037E08BE002F0F0FBF8BD2978A0
:102580006A7811408F07BF0F1ED022466032917DBE
:10259000002900D00F40517F38408843070013D0F6
:1025A000B94210D0B80701D5022702E0F8070AD0D7
:1025B00001272F706F70608B21460830A0850222A2
:1025C0002C31A81C03E00027042239492846FFF7D4
:1025D000CEFC334604221821284602F0BFFB6034AB
:1025E000A775E775F8BD2E48F1008030081833460E
:1025F0000822152102F0B2FB294A0021F0008032A6
:102600008718284A480008322B5A125A934200D998
:102610002A523A5A2B5A9A4200D22A52491CC9B21B
:102620000429EED36888298880080E3880B2814258
:1026300002D98021085501E0802211554008C01FB1
:10264000298880B2814202D97F21085501E07F208C
:102650000155E888A98880080E3880B2814202D9E5
:102660008221085501E0822211554008C01FA98827
:1026700080B2814202D98121085501E081200155B3
:102680007F20025D80346178304602F0AEFBF8BDF9
:1026900001220721384633460B306DE7840F0020B6
:1026A000300200209A9F00000C030020000300204D
:1026B000F4A00000164AD07929280FD02A280DD07E
:1026C000322802D0352821D108E0506AC189D18151
:1026D0006030807F012801D1491ED18170B5012071
:1026E00090700C4C0026E670FF2020700A4D66703A
:1026F0002868002804D06868FEF76AFC6E602E60C7
:102700000222A11CFF2005F04FFC70BD70470000A5
:1027100018020020681000208C0200200148006888
:1027200070470000CC0200204248817800297FD009
:10273000F8B5C07928380E2869D2010079440979A2
:1027400049188F44066666066464646464646606B9
:102750000666394EF1787078814258D002462032B0
:10276000914201D9202403E0081A0406240E4ED019
:10277000324F31783A68507A431ADDB2937A181A98
:102780004019C3B2A34226D25118C0B20246301D2E
:102790000B31FFF720FC601BC4B2796838688842AF
:1027A00016D0827A407A0B31101A4019C0B28019C3
:1027B0002246001DFFF70FFC3868817A407A081A1C
:1027C000201A3070786838600068002800D078607F
:1027D0006019C4B212E051182246301D0B31FFF7C8
:1027E000FAFB307800193070AC4207D1002030700D
:1027F000786838600068002800D07860002C06D027
:102800002146301D04F016FE707800197070F8BD76
:102810000EE00B4CE0786178401A1028F7DD6A2052
:1028200005F0F4F91028F2D3102000F0D7FFF1E7FB
:10283000704700001802002044100020940200207D
:1028400068100020F0B5FA4AFA4E507987B0042893
:1028500064D0D069F84947780197456809688D4286
:1028600000D0FDE311460A7AAA180A7200780228FD
:102870007DD20D4600287BD0F04F387804F06CFDF7
:10288000EC7AA97A20464C406040E872C0070BD031
:10289000A00609D51C22EA49EA48FFF79CFB04225E
:1028A000E949EA48FFF797FBE87A80070BD560060D
:1028B00009D50C22E649E748FFF78DFBE2490422DF
:1028C000081FFFF788FBE87AE34A4007400E68726A
:1028D000E9893878091AE981296A4C68201A486020
:1028E000E96900200870387848607D214143146907
:1028F000CB17556909196B41536111613179C906CB
:10290000C90E3171D5490B6818180860C878EF28CE
:1029100000D81DE20007000FC87019E2D07A937A40
:102920000146584043074CD04140D17210791646B9
:10293000507102F047FCF0690125C04C0570217808
:102940004160306AFF21017081783171042181700A
:10295000F07A4107490E7172C10719D01C22B8499B
:10296000B848FFF738FBB8490422081F01E0A0E18E
:1029700046E0FFF730FBF069B2494570306A4570B8
:10298000097A0A07B649120F895C2278891812E081
:10299000800711D5AE490C22881AFFF71CFBAA4903
:1029A0000422081FFFF717FBF06902214170306A0B
:1029B0004170A84989884160207804F0CDFC07B0B7
:1029C000F0BDA548A74C02694169121900230261B4
:1029D000594141613079A149C006C00E30711922B8
:1029E0000868920180180860C878EF2802D90007AB
:1029F000000FC870FEF70AF804F064FB07B0F0BDE2
:102A0000022004F0A9FC06F0DBFB9748017AC02005
:102A100001436B2005F066F904F070FDE869934C02
:102A20004678002E14D0924804F0D8F90422914937
:102A30007A2005F023FB00219B2005F053F9252087
:102A400004F062FB012E53D0022E7DD000BF7FE147
:102A500089486862FF2004F057FBE87900282FD0EE
:102A60000120FEF779FA696A04227A20091D05F02F
:102A700005FB686A7521095CA971027F2E30105C24
:102A800006F044FC686A027F2E30105C205C04F083
:102A900011FB686A027F417E521878498A5C02778E
:102AA000083004F09BF9686A6030407F02281DD02E
:102AB000002004F0BDFB04F089FC02F06BFB47E151
:102AC000696A0320085604F025FB02F02BFB322034
:102AD000E871E889801EE881286A4168891E4160A2
:102AE000E8690321017002214160BCE70120E0E7B1
:102AF000544F88217878604A414389186962697A1D
:102B0000C90606D400285CD102F018F901207870BB
:102B100057E0E879002801D00220ECE00220385686
:102B200004F0F8FA02F0F0FB3878554E305C06F00D
:102B3000EDFB3878305C205C04F0BCFA397843480F
:102B4000405C3870387A00E038E04E4A0607360FAD
:102B50009070012E06D0E87A000706D54B484A4C03
:102B6000C07E05E04A4C0C2002E04B48494CC07E38
:102B7000D070901C04F07EFA787A002818D047486C
:102B800004F03CFC002004F053FB022E12D004F0B1
:102B90001DFC0B20E871204604F024FC286A4168E3
:102BA000891E4160E8690321017002214160CFE084
:102BB0003B48E5E704F0FEFB0A20EBE7687A800675
:102BC00007D404F08FFC02F03FFB02F02DFB07B0AE
:102BD000F0BDE879002803D00320FEF7BDF9B7E087
:102BE0001C4E0A20305604F095FA02F09BFA307819
:102BF000234F385C06F08AFB3078385C205C04F0A8
:102C000059FA002004F014FB707800284AD01420F0
:102C1000E8711C480C21C17004F0D8FB286A416897
:102C2000891E4160E86902214160032101708FE043
:102C300018020020A8020020D0020020C7020020B5
:102C4000100F0020B40E00205C020020580200206B
:102C5000780F00206C0F002098020020CC0200208A
:102C60008B9F0000400D0300BC110020C911002003
:102C70005402002050020020840F0020D89F000042
:102C8000749F0000441000202C0F0020300F002003
:102C9000BF0E0020D00E0020D40E002065020020C0
:102CA0000E0300201520E87104F084FB02F0A0FA66
:102CB0004EE0FD49FF287DD00D46032812D10120AA
:102CC00004F04AFBF9480078662817D0F848407AA3
:102CD0008106890E772004F0DFFFE8690121416059
:102CE00002210170E8694078002812D001287DD0C7
:102CF00002287CD00920FEF72FF929E0EC48317931
:102D0000407A052201433171EA49732005F0B6F992
:102D1000E3E7E879323806286AD201007944097974
:102D200049188F440A02020A1CFDE889401EE88106
:102D3000286A4168491E416008E0296A48680328FA
:102D400007D0EA89401E521EEA81486000F024FD47
:102D500025E204F02FFB06F033FA3620E871D24D5D
:102D6000286A406804F0F8FAE8698078009002F078
:102D70003FFAED8902F000FA0646CF48002702909C
:102D8000C948406A014680318A88438A9A427AD289
:102D9000CB887D2109028B4275D20178802919D117
:102DA000418B828DC919914214D106210170018C89
:102DB000C18300E040E2818C06224D190146263194
:102DC0000E30FFF708F9B848406A2030C078A842B2
:102DD00000D905460098042856D2C100B748081803
:102DE000B149086241688C46A94202E0ECE0E7E1A3
:102DF000E8E041D30178022916D2B1490B78F218E4
:102E0000D11CA94210D2AC1AA74AE41ED18171008C
:102E1000CE18516A27360A78022A01D1C97A8E194A
:102E20006146491BB14275D89F49496ACA890B78E6
:102E30005519CA8B5E0608D5029E9B5D002B04D0F7
:102E40000E468036F3889B18F3800B4680339E88AD
:102E5000B2189A800A7F4B7ED3189A4AD25C0A77BE
:102E60009149CA6A096B52188F49CA629649C97852
:102E7000891C7F1CCEB2FFB2817800918A4A4168DA
:102E8000D0616D1A7CE745E08D4800783118083133
:102E9000A94202D3291A08398EB23118C91CA94295
:102EA00025D3814E716ACA890B785519CA8B5C0685
:102EB00008D5029C1B5D002B04D00B468033DC88B8
:102EC000A418DC800B4680339C88A2189A800A7F65
:102ED0004B7ED3187B4AD25C0A77F26A316B521868
:102EE0007949F262C978891C7F1CCEB2FFB23118D1
:102EF0006C1A6D4BC91CD98171000818273086B235
:102F0000586AE41E0178022902D1C07A801986B27B
:102F10007F1CFFB2644D686A01468031CB8800E0B7
:102F200047E07D221202934205D33721E971222125
:102F300020308170FCE38988428A914226D2418BFD
:102F40005E4BC9194183E96928798870C000C018AF
:102F50000121E861017044608078C000C0182862D7
:102F60008178297100998170FF2146600170E969BB
:102F700001984870296A01984870019801F026FE6E
:102F8000686AE989C0894018E881CFE33721E9718F
:102F90000178022905D0422907D00821203081700C
:102FA000C4E33E2120308170C0E3222120308170B3
:102FB000BCE3286A406804F0CFF902F019F902F086
:102FC00001F9B5E3062096E6E8790C287ED00E28B4
:102FD00006D00F287BD0296A4868012878D0FFE006
:102FE000286A2E46406804F0B7F9F06980780090AE
:102FF00002F0FEF8706A002183898181DB1D02F0F6
:10300000BBF82F4900220978019127310391264905
:10301000096B02912449496A0E468036B4466546DA
:10302000AD8806954E8AB5427ED2009D042D56D2BB
:10303000EE00224D75191C4E35626E6805969E4253
:1030400030D32E78022E15D2019E86190496F61CD6
:103050009E420FD2049C144F1C1BFE81CE7A00E0CE
:1030600079E340003018039EE41E8019059EF61A8D
:10307000864262D8C889CE8BC31806980A4F801939
:103080006646B080087F4E7E86190E48805D0877C0
:10309000F86A029E86190C48FE62C078801C521C99
:1030A000C0B2D2B2AE7814E0180200200C030020A7
:1030B000BC110020A802002032A000006C110020EA
:1030C000C7020020D89F0000440200206DE067E0A6
:1030D00073E000966E689B1BFE4EF5619FE7019CB6
:1030E0000419E41C9C4218D3C889CD8BC3186046D0
:1030F0008088F84C40196546A880087F4D7E4519A8
:10310000F548405D0877E06A029D4019E062F348A7
:10311000C078801C521CC0B2D2B2019C05195C1B45
:10312000EC4BED1CDD8100E007E0CB7A40001B1882
:103130000398521C1818D2B2E41E6546AD884E8A18
:10314000E44BB54225D24D8BAA184A83DA69197926
:103150009170E34DC90049190122D9610A704C6090
:103160008978C900491919628C781C71009C8C708F
:103170004860FF200870DB48DC69417861701C6A98
:10318000417861704270586AD989C0894018D881E5
:1031900001E00120087002F015F80F20D871C7E295
:1031A000286A406804F0D8F807E0296A48680128CE
:1031B00016D104F0FFF806F003F802F019F8B7E2B0
:1031C000E8791438052835D201007944097949187D
:1031D0008F4402FD16161600296A4868062804D096
:1031E000401E486000F0D8FAA2E204F0B5F804F0FE
:1031F000E1F805F0E5FF01F0FBFF1820E87197E228
:10320000286A4468062C12D0072141600846E41F52
:1032100004F0A2F801F0ECFF286A002802D041680F
:1032200009194160B04801890919018180E200242F
:103230000620EDE707205EE5A648002FC0790ED0F6
:10324000012F37D0022F7DD00C20FDF785FEA14C39
:103250000020E07104F03CF9002874D08EE19D4913
:1032600033280CD006DC282809D02B2807D02D289D
:103270001BD108E0342802D0372816D103E00A20F9
:10328000FDF76AFE13E0486A20308478FDF706FFF8
:10329000C472877263210171042104F0E9FF38468A
:1032A00001F08AFE384601F049FD01F0A1FF01F06E
:1032B000BBFFCCE7874C0D2802D00E2805D101E0DA
:1032C00000BF02E00B20FDF747FE607AC0067DD507
:1032D0008448007A01078548090F415C84480078DA
:1032E000801C0818C1B27B48C06984782646042C2B
:1032F00025D27C48007884467A4843697848E200C1
:103300001018744A10620278022A0ED242688A4269
:103310000BD3521A6746002F03D06E48006A4260F2
:103320000DE0704FBF69BB42F7D36A4A84786D4F96
:10333000D061BA6940681018B861042CDED3654FBB
:103340003A7901E07DE017E1F869891E8270012277
:1033500002703879C9B2C2006148101838628378A7
:103360003B718470012241604270FF220270042C84
:1033700016D1042E14D15B4A5069332809D0137832
:10338000002B08D0FF22413290420AD35022551A16
:1033900007E01122FBE79269904201D9851A00E00B
:1033A00001254C484F4FC06969184560B8694018FD
:1033B000B8613878002807D17869332801D0002017
:1033C000B8614C4800783870052101E02AE085E1B9
:1033D000B869C902884217D37878474D80002858C9
:1033E000042104F045FF79780020890068503948AD
:1033F000EF22417A11404172C17A49084900C172F5
:10340000817A490849008172042E05D0A64203D072
:103410003048467101F0D6FE2E48C069406803F07E
:103420009BFF14E72F4C6078002803D101F086FC45
:103430000120607004F056F801F0DAFE01F0F4FEAD
:1034400005E7244C152801D0172801D105F0B8FE56
:10345000607A80067ED524480089122803D3224949
:10346000801C498801E014200021E26995782A46F1
:10347000042D25D267791A4BD600F31823621E78E3
:10348000022E12D2184E76888E420ED85E68142E06
:103490000BD35E68864204D0361A761C801E5E60AE
:1034A0000EE0B01E01265E600AE09A78142801D171
:1034B0005B685918E669042AB270236A9F70DAD3F0
:1034C000042A02D1042D30D01220074F7B888B4272
:1034D00015D913E018020020D89F000044020020F4
:1034E0006C110020B40E00206C0F00208B9F000098
:1034F000C70200205802002040020020591AE36948
:1035000026799E7001261E70491C59602179CB00D6
:103510009549591821628B7823718A7048603E89D9
:10352000864205D9301A38810CE090488088CCE773
:10353000B88838813B788E48185C3870002801D1F3
:103540000120387002204870FF200870042D06D03A
:10355000954200E008E002D0657101F033FEE069B9
:10356000406803F0F9FE72E680480021017001F026
:103570003FFE01F059FE6AE605F022FEE06901789F
:10358000022924D24078002821D17A4E3546603570
:10359000687DA071800715D03146182258318320EC
:1035A00004F06CFD287F80210843287731460522EE
:1035B00078317E2004F062FD04F0A2FD287F4006F1
:1035C000400E2877A0798007800F03F0F9FBE069AF
:1035D0004068022801D2FFF7FAFAE07AA27A01469F
:1035E000504042077AD04140E1724907490E61726A
:1035F000C10748D01C2260496048FEF7ECFC042259
:103600005F496048FEF7E7FC607A1021084360726A
:103610005A48007A01075C48090F415C5B48007812
:10362000801C0A18206A8178042912D24E4DC800E5
:10363000401920620378022B07D24368934204D3D7
:1036400043689B1A5B1C436003E08178E0610429B6
:10365000EDD3E36920799870434DC00040190123F0
:10366000E061037043608078C00040192062857873
:1036700025718170921EFF2142600170E0694370E4
:10368000206A437052E0810752D5400609D540496F
:103690000C22881AFEF79FFC39490422081FFEF706
:1036A0009AFC607A202108436072304D206AAA8813
:1036B0008178921C04291AD22B4EC80080192062EE
:1036C0000378022B0FD24368142B0CD34368934228
:1036D00005D09B1A5B1C921E436008E028E09A1EEE
:1036E0000123436003E0E06181780429E5D30429E4
:1036F00000D11222E369207998701B4EC000801916
:103700000123E061037043608078C000801920626B
:1037100083782371817042602989891A2981FF2168
:103720000170E16902204870216A487001F04AFD89
:10373000184C6079042800D14DE7E06940680328FF
:1037400001D3FDF763F9E06940685028F4D903F02C
:10375000B9FC07B0F0BD8D4202D9691A416000BFC3
:1037600000BF07B0F0BD00006C1100206C0F0020FE
:103770003EA00000840F0020100F0020B40E002097
:103780005C020020580200208B9F0000C70200202E
:10379000780F00201802002010B40D487D24026923
:1037A00041691219002359410261416109480179B7
:1037B000C906C90E017108490868401C0860C8782C
:1037C000EF2802D90007000FC87010BC7047000036
:1037D00098020020A8020020CC020020002871D00E
:1037E000F8B5044690488F4F0578384603688E48F0
:1037F000061D4278C0789119FF2D04D0904201D95E
:10380000002B08D1F8BD002856D0002A08D09042DD
:10381000F8D9002BF6D02246FF2004F0C5FB42E089
:103820000090FDF74BFC0546786028007E4828D0C4
:10383000407822468119FF2004F0B6FB7822292126
:1038400000203D602A7168722872009B002B06D010
:10385000292B1AD9A972009B293BDBB200932D6852
:10386000002DEED1704DA9788907890F012910D05C
:103870006E4B7A681A607968096800290FD0596020
:103880000EE0C178417000201AE0AB723D60286004
:10389000E8E76648396801607968416001E05A608C
:1038A0002870002CAED004F02BFC2546292C0AD918
:1038B0002824283DEDB208E0002AF4D100207860E9
:1038C0003860F8BDACE02C46002557480078FF284A
:1038D0003FD0564B1A68917A507A814236D0091AF5
:1038E000CFB201192929504949787DD90B301018D8
:1038F00089193A46FEF76FFB4C480168487AC019AF
:1039000048724A484068814210D0E11BCAB2009117
:1039100045493F1D4B780B305918C919434FFEF7E5
:103920005AFB78680099427A511841723F490868F9
:10393000827A407A824205D14868002802D0086025
:10394000006848603848417809194170002DADD1B0
:10395000F8BD37483749C0694078C00042185268FE
:10396000002A4AD00858827A2F4841785018C0B2AD
:103970000219292A08D22D4A0B3012688919101809
:103980002246FEF728FBDDE729281CD22922274BF7
:10399000171A1B680B30FAB289191818FEF71BFBAF
:1039A000E01BC0B2009020483F1D4178009A0818E3
:1039B000C1191E4840680B30FEF70DFB1B490098EB
:1039C000496848720CE0201A2930C7B21748891993
:1039D00040683A460B30FEF7FEFA144840684772DA
:1039E00012494868002800E00FE002D00860006833
:1039F00048600D4800210170A4E70A4F7868FDF780
:103A0000E7FA002078603860A0E70B3010188919B9
:103A1000064F2246FEF7DFFA3868417A091984E733
:103A2000704700008C020020681000209C020020DB
:103A30001802002084020020F8B50026164D8400EC
:103A400028593746002817D0017A00291FD0427A1A
:103A50008A4205D9D1B2027A891A417207720BE003
:103A60004772077201682951002907D0FDF78AFAC9
:103A70002859017A0029E5D1002E0CD00179E629D8
:103A800003D0EF2905D0F02905D1422102E0002022
:103A9000F2E703214172F8BD28020020F0B5F94D8C
:103AA00083B0E86941782846C079002907D0B0265C
:103AB000012979D0022978D000BF03B0F0BD0026DB
:103AC000F049AE700A6A0124EF4F496A322806D0E5
:103AD00033286BD034286AD0352869D10EE0B87805
:103AE0006B461870F87858708320EE62405CC98B82
:103AF0008300E648C058414300242963152110463D
:103B000000F03EFC002852D1002C04D0B878694661
:103B10000870F8784870686A0C21C47A0C40017803
:103B2000022908D104210170014680318E80CE80A7
:103B3000418D0024418203F058F9D24900280870D1
:103B40001CD00322D249A62004F02EFA6846007841
:103B5000D04F0007850F20462843385C410643D5E7
:103B60006846407800283CD06A2004F04FF8FFF700
:103B700035FEC948406800282BD032E0C748FB21F9
:103B80008470C1700025801C03F074FABD4AC44FD4
:103B9000D06940788300F85800280AD0017A0029BB
:103BA00007D006720068F7E7A8E1EEE25BE164E1A6
:103BB000A0E1506AFF58C4723420D071B648016841
:103BC00000297DD04068FDF703FAB34846600660DF
:103BD0007BE069460878EF21084069460870B148E3
:103BE000455D2C433C5D00E00446A6493422486A0A
:103BF000C472CA716A461278D20601D53322CA71DC
:103C00000178062903D104210170418D4182A34826
:103C1000FB218470C1700025801C03F02BFA200664
:103C20009848C06940782DD5FFF706FF07469548AC
:103C3000C069407881009A484158084638431AD0F4
:103C4000002907D17D7A20200543F87A0190384673
:103C5000FDF798F98B488179C9070CD0002F0AD05D
:103C6000406A016F491C016705D16030017D491C24
:103C70004906490E01758348C069407801F0E2F8B1
:103C800007460BE0864A81005058002805D0037A89
:103C9000002B02D006720068F7E75758600614D56B
:103CA00068464078002810D07648817989070CD57D
:103CB000406A816F491C816707D16030017F00E055
:103CC00003E0491C4906490E0177002F24D06D4FAF
:103CD0003878002810D0F86973494078C00041183E
:103CE0004968002904D1714940184068002803D070
:103CF000102004433320F871F8692146407800F021
:103D000035FD002835D1F869407881006448405875
:103D100000282ED0342026E001202043C1065F4831
:103D2000C90E8170C670801C03F0A4F9554F786AE3
:103D3000028A002A1DD08189914219D2620614D5C7
:103D400069464978002913D1210603D48421095AF0
:103D500000290DD005F034FA786A8189491C8181E7
:103D6000803086803620F87103E00029F2D100E02F
:103D70008681A8063727002842DAE84380070DD05D
:103D800068063DD53F48C0694578FDF787F964214D
:103D900001718572042104F06BFA31E0394D686AD3
:103DA0000178042905D1424A0199515C01708621AC
:103DB0000E520199022906D006290DD00B2910D0E8
:103DC0000C291AD114E005F0FBF9696A162020319C
:103DD0008870EF7103B0F0BD53210E5404210170BF
:103DE0000BE002215322115406676030067504E08F
:103DF00001788C2901D104210170E8793728E9D0B4
:103E0000204D28780028E5D0600623D56846407804
:103E100000280BD0A879800708D59B2003F0B8FEB6
:103E2000C0060BD568460078800707D0E86900997E
:103E3000407800F0CBFAB02809D00BE0686A3D2149
:103E400020308170EF7105F0BBF903B0F0BD05F0D3
:103E5000B7F9EF71686A8030868003F011F8696AFB
:103E6000487703B0F0BD4031C87C002805D1262139
:103E7000104600F085FA00281CD005F0A1F9362084
:103E80007AE200001802002068100020B89F0000AD
:103E9000C902002062A000008C0200204410002013
:103EA00028020020789F0000740200207C0200207D
:103EB000A6A000003520E871A879800713D5696AAB
:103EC000802308466030027F78311A43027705224A
:103ED0007E2004F0D3F804F013F9686A6030017FA3
:103EE0004906490E0177A8798007800F02F068FF24
:103EF00003B0F0BD05F064F903B0F0BD0F240A284B
:103F000007D00B2808D00C280AD00D28F4D105F0D2
:103F100057F9EC7103B0F0BD0C20E87103B0F0BDAF
:103F2000F848C47102F061FF0028E3D0022269461C
:103F3000FF2004F039F8F44F387A05072D0FFDF70C
:103F4000ADF8044601900834067122222146FF2074
:103F500004F02AF8684600780007000F03287DD097
:103F600005287CD105F02CF9002D02D0012D0DD0B3
:103F7000FEE0B87C032801D0022818D168460078FA
:103F8000019903F0E1FA002869D110E06846007851
:103F90004006387A02D4000661D401E000065ED5FE
:103FA0000622DA492046FDF7D2FF002857D168469D
:103FB0000078019903F0AEFA002850D1D248D449D4
:103FC000457868460078400604D50120AA008A5842
:103FD000507303E00020AA008A585073CC48AF0009
:103FE000C0592146062216311430FDF7F4FFC849A6
:103FF0000020C95926468872203670780622410969
:10400000C348C059817670784109BE48406A803003
:10401000C170BF482146C0590E30FDF7DCFFBC48D7
:104020000421C05904F024F9B9490020C851B54809
:10403000C078002802D02839401EC870B14F2146F0
:10404000786A15220C31001DFDF7C5FF786A25221C
:10405000B0492E30FDF762FF002001E04BE087E021
:10406000F862786A03468033D9788A00AA49895869
:10407000C28B4A433A63E17C0A225143CAB2C272FC
:1040800071780A24C906C90E41767178C906C90E2D
:10409000017702210170818961438181418AC900D0
:1040A0004185C189C1838C009C800A23594389B210
:1040B0001346C18108334182994201D1223AC2722A
:1040C000FCF7ECFFE92101710572002104F0D0F842
:1040D0008D48796A8078C870787AEF2108407872C4
:1040E000F87A40084000F872B87A40084000B87288
:1040F0000E20F8713CE0002D01D0062D38D103F0E0
:10410000FFFFB87C012801D0032806D1684600785B
:10411000019903F019FA00282AD16846007801991C
:1041200003F0F8F9002823D1387A764D0109090106
:104130007A48091D8170E97AC90605D57849794C14
:10414000C97E891DC17004E077496F4CC97E891D05
:10415000C1703C34801C02F08DFF787A002812D0A8
:10416000724803F04BF9204603F03CF90D20E8714A
:104170000021019804F07CF86248C0790F2800D132
:10418000B8E603B0F0BD6A48EBE71821694C142883
:1041900027D015287ED016287DD01728F1D1E971B7
:1041A00005F00EF802F021FE0028EAD05820FCF7B6
:1041B00025FE0028E5D102226946FF2003F0F4FE27
:1041C000FCF76CFF01460446067125220831FF20EA
:1041D00003F0EAFE684600780007000F04287DD14E
:1041E000C0E0E97102F001FE0028C9D05820FCF7B8
:1041F00005FE0028C4D102226946FF2003F0D4FE48
:10420000FCF74CFF014606710746083125220E4691
:10421000FF2003F0C9FEE079002810D003F070FF02
:1042200068460078394603F08FF9002807D004F07B
:10423000C7FF0021384604F01BF803B0F0BD694603
:104240000A7800201107090F0DD0012908D0022992
:1042500006D0062907D004F0B3FF002138466BE0F2
:1042600004F0AEFF1CE0510600D58020A1790029A2
:1042700001D0402108430321084328498870881C45
:1042800002F0F8FEA07900280FD0284803F0B6F815
:10429000162001E00BE06CE0E871304603F0A2F874
:1042A0003946009800F0F4FFD7E72148EEE7E971BE
:1042B00004F086FF02F099FD0028BED05820FCF7DC
:1042C0009DFD0028B9D102226946FF2003F06CFE53
:1042D000FCF7E4FE05460671252200E046E00146B3
:1042E0000831FF2003F060FEE079002828D003F0B9
:1042F00007FF68460078294603F026F900282ED1EA
:104300001EE0000018020020B40E0020BF0E0020A6
:1043100040020020D89F0000B89F000044100020F9
:10432000500F0020100F0020F40E00206502002026
:104330000E0300206C0F002003F09AFF03B0F0BDC5
:10434000684600780007000F05D0012803D0022836
:1043500001D0062803D12946009800F099FF0021DA
:104360002846E9E72146009800F092FF0021204608
:10437000E2E703F01FF81720E87103B0F0BD00007A
:1043800010B4104C8378626AD289520912325218E2
:10439000042B0CD2D9000C4B4468C9184B68091D7A
:1043A0001B19934206D99B1A0B60426006E0E38911
:1043B000934202D210BC01207047416010BC002023
:1043C00070470000180200206C110020F3B50804AB
:1043D000070E880781B0800F00900198DA49C0006D
:1043E0004518DA48416A5320465C002E0FD00098E9
:1043F000012804D0022802D0032845D107E0002F6D
:1044000005D03D2020318870B02003B0F0BD6A682F
:10441000002A1FD00098012802D002281AD10DE0EE
:10442000002F19D100211046837A00685918C9B2AB
:104430000028F9D1D07A001D88420BD10198107262
:104440006968712008710421686803F01FFF00206B
:1044500068602860002F71D0BD484468002C13D0DC
:104460000098032813D0022821D07820B849207161
:104470000B68002B71D0286800286FD0597A292644
:10448000B44F00296BD105E1B02003B0F0BDE720A7
:104490002071A77201982072E17A19290BD8AE48D1
:1044A0007F1E405C874204D1AC48415C02E0712031
:1044B000DCE71A21E172A54D686A0278530616D529
:1044C000A74BD75C04238F4201D1037008E0072972
:1044D00006D00D2904D0112902D0172910D103E0EC
:1044E000002286231A520BE0562AEED008E0192942
:1044F00006D89C4B042A5A5C16D0042A00D00270BD
:10450000192973D20A007A441279921897440E0E30
:104510004E545C6C65AC77776F72B48077ACAC80CE
:10452000ACACACACACAC8A000270E9E7002E06D0B3
:104530003D2120308170B02020719DE0FDE00029F8
:104540000ED0214605220C311430FDF744FD2146E2
:10455000686A022211312C3006E0E9E0F0E09FE0C9
:1045600021460B220C312330FDF735FD686A818D21
:10457000428B914203D0891A7B4A914205DB282164
:1045800020308170B020207176E0C18C0246018419
:104590002032D3780A267343D370828C71437243DE
:1045A0008284C184418DC900418565E0217B203032
:1045B0008170B02020715FE00221A971002E5BD1D3
:1045C00001214030C17457E001214422A9710270D9
:1045D000002E51D14030C1744EE02673A979C943F1
:1045E000890701D14030C174032001E03CE0012083
:1045F000A87141E0002181676030017710E0217BE4
:104600002D2211404170617BC907C90F817033E0D1
:104610000178432901D044292ED100214030C174B2
:10462000A97129E098210170214602220E312C3017
:10463000FDF7D1FC686A818D428B91429FD0891A27
:10464000494A91429BDA217B627B11408907890F9D
:104650001CD06030437F8B4203D08275217BC175B3
:1046600002E000218175C175002E05D0696A3D20E8
:1046700020318870B0202071686AA9796030417556
:1046800000BF0021204603F001FE51E00021603010
:104690008175E4E739688B4202D17A6891420BD088
:1046A000827A99188018B21AD2B20B300B31FDF70A
:1046B00092FC286886720EE0827A80189B188A7AAB
:1046C00019460B310B30FDF786FC28683A68817A71
:1046D000927A891881721E4E7068417A002925D01D
:1046E0003068417A002915D13968884212D0FCF728
:1046F00049FC38683060427A3946292A08D14A682C
:10470000002A05D00260786800213060016001E075
:10471000002101603068417A827A914200D0817232
:104720002968706808603068286001E0FCF750FC78
:104730000748002141600160277903B03846F0BD89
:10474000486868600868EFE78402002018020020CB
:104750008C0200209C020020DAA00000C0A0000013
:1047600032A000008CA00000FF7F0000F3B581B0F4
:104770000198B24980000090B14E095831607160D3
:104780000879E62810D0EF280CD0F02812D00024A9
:10479000AC48406A8030407802091201821A012A2E
:1047A0000AD00BE00324F3E7487A8A7A904201D1D9
:1047B0000224EDE70124EBE7401EC0B2029AA24DAD
:1047C0002243D206D20EAA700022EA70012C0CD02D
:1047D000022C0AD0032C3ED1887A0872E8708A7ABB
:1047E000281D0B31FDF7F7FB1CE00B7A4A7A1F18E6
:1047F000974206D2DAB212180A72E9780818E870FD
:1048000010E000280ED0D21AEB78801AD218EA7085
:104810004A7A0A720A68C0B2002A03D03160096875
:104820007160E2E7E878102815D90007000F012829
:1048300011D17068027A092A02D3093A027207E09C
:10484000316809270B7ABA1A9A1A0A720021017282
:10485000E8780938E8707A49002009680E460A7A33
:104860004B7A9A4202D29A1A1018C0B2072823D85B
:1048700009680029F3D100281ED0072802D8082192
:10488000081AC0B2E978091A102905DD0907090FCD
:10489000012901D1401CC0B269494A68117A81429C
:1048A00001D3091A04E0337A411A591A31720021EE
:1048B0001172E978081AE87060490098EF780E588C
:1048C000202F00D920276F7000255D480660327ABE
:1048D000B07A717ABA4213D2401A81195A480B3110
:1048E0004019001DFDF777FB307A391ACFB2411914
:1048F000CDB2554908703068002810D00646E4E76C
:10490000401A811950483A464019001D0B31FDF7F5
:1049100062FBB07A717A401A4B49C0190870484A54
:1049200016603068002807D04749B57A0B78AB424B
:1049300002D110600020087010680168002901D0C1
:10494000516000E050603F4DA879C00705D0696A0A
:1049500005227E20703103F091FB3A4DA879800743
:10496000800F02F02DFA696A0A466031087D400620
:10497000400E0875A879C30737D0497F022934D182
:10498000314FF978072930D8354620356978002924
:1049900003D0116F726991421BD0002131720298CD
:1049A000012210430207120FBA70F970B81C02F00E
:1049B00061FBFCF773FB59210171204A00995158A2
:1049C000C16001990172447203F044FC002003B0FD
:1049D000F0BD0221084002F0F3F96A78FA7031461E
:1049E0007A702231381DFDF7F6FA3E2003F00EF9F9
:1049F0004021164C084020700DD01248C189491E34
:104A0000C181006A4168491E4160FEF7C5FE2178F8
:104A10003E2003F067F90C4CA01C02F02BFBE07861
:104A2000002806D06178201D02F0F4FC0549012021
:104A3000887002490098085803B0F0BD2802002091
:104A4000940200201802002044100020C10200201F
:104A5000882148430349085C022801D2002070479E
:104A600001207047840F0020F7B515460098FFF726
:104A7000EFFF00280CD02846FCF74AFB060007D0C1
:104A80000020072D01D821218855344600271BE03E
:104A90000120FEBD292D03D32922293DEDB201E0DD
:104AA0002A460025F0202071A27262720020207236
:104AB0000198C11920460B30FDF759FA20680028EB
:104AC00002D029370446FFB2002DE3D1E620307131
:104AD00072B60098FFF7BCFF00280BD00098094978
:104AE000C00040180168002909D00E60046062B659
:104AF0000020FEBD3046FCF753FA62B6C8E74660B8
:104B0000F4E7000074020020F8B515460F4606468B
:104B1000FFF79EFF002824D0FCF7ACFA040020D059
:104B20000020072D01D821210855E6212171A57209
:104B30006572207220462A4639460B30FDF717FA77
:104B400072B63046FFF784FF00280CD00A49F00007
:104B50004018016800290CD00C60046062B6002087
:104B6000F8BD0120F8BD0021204603F063FB62B6CA
:104B7000F7E74460F1E7000074020020F8B515463D
:104B80000F460646FCF78AFA040019D00020072DCC
:104B900001D821210855E6212171A5726572207284
:104BA00020462A4639460B30FDF7E1F90649F00068
:104BB00040180168002905D00C6004600020F8BD91
:104BC0000120F8BD4460F8E77402002070B51D4D67
:104BD00004466A6A508B918D884232D9107804233A
:104BE00041280CD02946496A6031582810D08128C4
:104BF00005D0982825D1887D002808D008E01370BA
:104C0000FCF74CFAE92101710472002117E01370DE
:104C10001370887D0026002804D04877C87D8877E7
:104C20008E75CE75FCF73AFA742101718672C472E2
:104C3000696A60314A7F0273497F4173042103F03E
:104C400017FB70BD18020020F8B5304901204870EC
:104C500002F0D6F82E48552600782E4D66282BD027
:104C60003E2002F0D3FF3040044672B601463E209B
:104C700003F038F862B6600605D572B6FDF754FD4C
:104C8000FDF7E0FD62B6E00703D072B6FDF712FD56
:104C900062B6142004420ED0600706D51E48017A81
:104CA000C02001436B2003F01DF872B6002028706D
:104CB000FEF7F4FE62B6F8BDAA273E2002F0A6FF7A
:104CC00004463842F9D1344072B614490AD020461D
:104CD000BF222C70104000D0087021463E2003F007
:104CE00001F8C7E7287842060ED54028C2D10878D7
:104CF000012805D0042805D01028BBD10424B9E729
:104D00001024B7E70124B5E74024B3E718020020D8
:104D10000C030020C1020020BC110020C2020020B0
:104D200005490020882242438A5C012A03D0401CA6
:104D30000006000EF6D07047840F002070B5064DB7
:104D400084002859002806D0B0210171002103F009
:104D50008FFA0020285170BD40020020FFB581B0BD
:104D60001E4615460F46FCF785F90446E8202071DB
:104D70002672681CE772A072002D05D020462A46D4
:104D80000C300199FDF7F3F80021204603F052FAA8
:104D900005B0F0BDFFB581B01E4615460F46FCF7C5
:104DA0007DF90446E82020712672681CE772A07223
:104DB000002D05D020462A460C300199FDF70BF94D
:104DC0000021204603F054FA05B0F0BD70B514463A
:104DD0000D460646FCF74EF9662101714672857252
:104DE000C472042103F026FA70BD70B514460D4656
:104DF0000646FCF73FF97321017186728581C481F3
:104E0000042103F017FA70BD70B514460D4606462E
:104E1000FCF730F9742101718672C5720473447312
:104E2000042103F007FA70BD70B50C460546FCF787
:104E300021F9622101714572C472042103F0FAF96B
:104E400070BD000030B4224C8300E15800220029DC
:104E50003AD1214DC1006D6A1E484035ED7C0818DD
:104E6000002D13D0416800292ED0C97AC91E0F2900
:104E700015D20D007D442D796D19AF441212121216
:104E80001010101212101210101012004268002A96
:104E900007D1124808184168002902D114E0002AFD
:104EA00012D04168E1504268116804E00D79F02D9C
:104EB00004D10A46096841600029F7D10021116038
:104EC0004268002A00D10160E05830BC7047000001
:104ED000280200207C02002018020020740200201A
:104EE000F8B5074688202E49784346182D48FD001E
:104EF000281808222C49FCF7F9FF88222B49304654
:104F0000FCF7F4FF72B60121304631706030417712
:104F100081771B21C177803631707170B170214E5D
:104F2000BA00883EB058224B224F00280ED0197884
:104F3000491C19700168002902D00800F7D105E06A
:104F400039680160B05838600020B05062B6002067
:104F5000002804D0012805D0022806D11DE01149FF
:104F60003C3901E00F4934396C1872B62668002EBE
:104F70000DD061681A78521C1A7009680029F9D19D
:104F8000396831606168396000216160216062B612
:104F9000401CC0B20328DBD3F8BD02492C39E3E73B
:104FA000840F0020B0020020A29F0000F4A00000A7
:104FB0000C02002010020020F8B507468820304976
:104FC000784346182F48FD00281808222E49FCF780
:104FD000A5FF88222D493046FCF7A0FF012130466D
:104FE00031706030417781771B21C17720300170AB
:104FF000417081702649BA00C878274B401CC870A0
:1050000024498858002810D00F461978491C197077
:105010000168002902D00800F7D106E01F490E6898
:105020000660BE580E600021B9501D4800212818A6
:1050300084461C482F181C482E18002904D001292A
:1050400004D0022905D103E0644602E03C4600E0BA
:1050500034462568002D0ED060681A78521C1A70EC
:1050600000680028F9D10D4A106828606068106057
:10507000002060602060491CC9B20329DDD3F8BD5F
:10508000840F0020B0020020A29F0000F4A00000C6
:1050900018020020280200200C020020100200202C
:1050A000740200207C02002084020020F8B506462D
:1050B000143605462E3500231C461846315C012265
:1050C000114202D02B55641CE4B25B1C5200120644
:1050D000DBB2120EF4D1401CC0B20528EED3252C51
:1050E0000DD02520001BC2B228192946FCF73FFF2E
:1050F00003E0641EE4B2285D2854002CF9D1F8BD09
:1051000010B502F07BFC044600790549B038000672
:10511000800D0958204688472046FBF723FF10BD25
:1051200098A1000070B5104EF47A40252C4321461A
:10513000792002F0D7FDF4720C49012008730C4865
:105140000078662805D0717A7720294302F0CAFDDD
:1051500070BD0849727A0879104328430871052206
:10516000732002F08BFF70BDBC11002018020020DC
:105170000C030020A80200200448026BC16A8918B1
:10518000C1620348C078801CC0B27047180200207A
:10519000440200200948406A0278C18B53068030DF
:1051A000002B06DA064BD25C002A02D0C2885218C5
:1051B000C280828851188180704700001802002048
:1051C00032A0000008494879042809D0074AC000E5
:1051D0008018C8618078042803D0C0008018086255
:1051E00070470020FBE70000180200206C1100202F
:1051F0000B4AD169137988788B705179117100212C
:105200005071042809D0106AD0618078042805D034
:105210000449C000401810627047D16111627047A4
:10522000180200206C11002010B5064841790429AD
:1052300004D0C069406802F08FF810BD19208001C9
:10524000F9E700001802002030B40F4A116A137900
:1052500088788B70537913710023507104280FD014
:105260000A4CC0000019D06145684968691841605E
:105270008078042805D0C0000019106230BC704747
:10528000D361136230BC7047180200206C110020FB
:1052900070B50E46054603221A49A62002F084FE88
:1052A000FBF7FCFE04466B202071314620460622A7
:1052B00008310D30FCF78FFEE8B2410601D501211F
:1052C00000E000210007000F2173E072012816D0D2
:1052D000A804800E801FC5B2E574002D06D03146AB
:1052E00020462A460E311430FCF775FE01F0C8FD49
:1052F000611908750421204602F0BAFF70BD00252F
:10530000EAE70000C902002070B5114DEC7ABF2019
:1053100004402146792002F0E5FCEC720D490220A0
:1053200008730D4801784020662905D0697A014349
:10533000772002F0D7FC70BD084A6B7A11791943C7
:105340000143117105220549732002F097FE70BDDB
:10535000BC110020180200200C030020A80200202D
:1053600070B50E4C054620780D490007000F411816
:1053700010222846FCF7D2FD2078C00704D0294629
:10538000204604F009F870BD044804F035F82846BA
:1053900004F026F803F0FAFF70BD00004C02002074
:1053A00042A0000010B50F210348FBF733FE03496C
:1053B0002020086010BD00004041004080E100E076
:1053C00010B50B4C01210022C9032046FBF73DFE1E
:1053D000FBF748FD662808D0064A0F212046FBF758
:1053E00027FE05492020086010BD01221204F4E7C1
:1053F000404100400000010100E100E010B5012142
:105400000022C9030148FBF720FE10BD40410040C7
:1054100070B5074C012565607D26F6003046FBF728
:10542000C5FC002060603046FBF7C0FC656070BDC5
:105430008048004010B5012202210348FBF705FE19
:1054400002490120486010BD804000408048004073
:1054500038B5114C002220212046FBF739FC2046AC
:10546000FBF76EFB0120FBF76BFBA007016B0B4A00
:10547000090C09048918016309480A4C00900823A3
:1054800004220021204602F0B5FC00220121204622
:1054900002F086FC38BD00000D0040664444000068
:1054A000001BB7000010064000BF704770470000A7
:1054B000F8B5214E827A01460B3173680446CF2A33
:1054C00037D009DCC32A23D0CC2A11D0CE2A02D16E
:1054D0000E2000219847F8BDD02A15D025460C355E
:1054E000DD2A1DD0EB2AF6D1092029469847F8BDC0
:1054F00001209847114912484A7802700622801C00
:10550000891CFCF734FDF8BD042000219847F8BD44
:10551000607B69460870A07B48700A209847F8BDF8
:1055200003F022FC1020607372680D20294690471A
:10553000F8BD0F209847F8BDF80200200C030020AA
:10554000A0030020C17ACF2906D10F2201461046C0
:10555000024A09315268104770470000F8020020E3
:105560007047000010B5044603F0FEFB05480078C4
:10557000C00600D500BF0720034A21465268083103
:10558000904710BD00030020F8020020F8B52F4F0F
:105590000446B87C012600283BD1E07A012838D1A6
:1055A0002B48857A2B4800780540E8071BD0A07A65
:1055B0001023294A062103F06AFEA07A0A23274A0B
:1055C000072103F064FE102223492548FCF7CFFC95
:1055D00008222249F81DFCF7D3FC02222149224867
:1055E000FCF7CEFCBE74A8070BD5A07A10231F4A87
:1055F000082103F04CFEA07A0723144A092103F086
:1056000046FE680705D5A07A1023194A0A2103F03F
:105610003EFEF97C1748002902D00221017000E00B
:10562000067015480025067014480570FBF722FD2A
:1056300077210171A17A01724572042102F0FAFD0D
:105640000F480078000600D500BFF8BD50140020B8
:10565000751400208B030020C0140020D0140020FB
:1056600064140020D81400205F1400204B03002095
:105670005B030020870300208603002094030020A2
:105680000003002070B504460F481049C27C012079
:10569000002A02D002220A7000E008700C4900259E
:1056A00008700C480570FBF7E5FC77210171A17AC1
:1056B00001724572042102F0BDFD0748C078000662
:1056C00000D500BF70BD00005014002087030020EB
:1056D00086030020940300200003002000BF7047D1
:1056E000704700000949097989060DD508490978EC
:1056F000890709D502220146104610B5054A08312E
:105700005268904700BF10BD7047000000030020A2
:10571000F9020020F802002010B50446164800796E
:10572000800618D515480078C00714D000BF07229E
:1057300021460D311248FCF71AFCE07A1149C000ED
:10574000401808221049FCF712FCE07A04230F4AA3
:10575000582100F013FA03F0A7FAE17A0C4A172057
:1057600050540C49002008700B4A0320214652680F
:105770000831904710BD000000030020F90200200E
:10578000501400208C030020A00300204C020020B5
:105790008403002014030020F8020020084909793E
:1057A000890604D507490978490700D500BF0021BB
:1057B0008172062201461046034A0831526810479A
:1057C00000030020F9020020F802002007490979AF
:1057D00089060AD506490978490606D511220146E7
:1057E0001046044A0A3152681047704700030020EF
:1057F000F9020020F8020020F8B50546FBF73AFC54
:105800002C4E0446B17C284600270B30002906D0D8
:105810000A22F11DFCF78BFB002831D005E00A229B
:105820002549FCF753FB002811D0DD202071A87A10
:1058300020720021204602F0FDFC204800798006FD
:1058400004D51F480078C00600D500BFF8BDDC2095
:105850002071A87A2072707C102808D81021081AAC
:105860000206120E03D014491648FCF73FFB2046EF
:10587000102214490930FCF783FB13480770D8E75E
:10588000DC202071A87A20722046093010220F49AE
:105890000546FCF775FB707C102808D81021081A03
:1058A0000206120E03D004492846FCF71FFB0648E7
:1058B0000770BEE750140020F4A000000003002091
:1058C000F9020020801400208603002064140020C8
:1058D0000949097989060DD508494978090709D583
:1058E00008220146104610B5054A0A315268904711
:1058F00000BF10BD7047000000030020F902002027
:10590000F802002004480079800604D50348007896
:10591000000700D500BF704700030020F9020020F7
:10592000704700000C2201461046024A08315268B6
:1059300010470000F8020020704700BF70470000C9
:1059400002484078000700D500BF704700030020E0
:105950000B2201461046024A0831526810470000E7
:10596000F80200200D2201461046024A0831526812
:1059700010470000F8020020417B072919D270B5BA
:10598000782101710446017A0A480B4EC176002540
:10599000002C0DD0207978280AD12146A27A7019DE
:1059A0000B31FCF7E4FAA07A24684019C5B2EFE79E
:1059B00070BD7047D1120020F111002000BF704768
:1059C0007047704700BF704700BF704710B5007A3E
:1059D0008821484302494018FFF768FB10BD0000CA
:1059E000840F002010B5037A044998000858162245
:1059F00003210830FFF7B2F910BD0000400200207B
:105A00008307FF22DB0E9A408907090E9940002880
:105A10000BDA0007000F0838830808489B001818A5
:105A2000C36993430B43C3617047830804489B00D9
:105A30001818036893430B430360704700ED00E0C0
:105A400000E400E00122002192028018016070470A
:105A500070B50022094D01261346344694400C428D
:105A600002D014010351AB54521C092AF5D3012270
:105A70009202801802680A43026070BDA8030020E9
:105A800030B5090144587425AC43445044581A4376
:105A90001443445030BD70B509010E18049D059C97
:105AA0007260B56042580F252D02AA4342504258F9
:105AB00023431A43425070BDFFB52F4B17025A546F
:105AC0000923DB01C418160415060B0002F064FD5F
:105AD00009060C12191F252B32383D0023689B093B
