:020000040000FA
:10000000301D0020F100000017010000D5000000A5
:1000100000000000000000000000000000000000E0
:100020000000000000000000000000001B010000B4
:1000300000000000000000001D0100001F01000082
:100040002101000021010000210100002101000028
:1000500021010000611200002101000021010000C7
:100060004999000021010000210100002101000048
:100070009D990000210100002101000021010000E4
:1000800021010000210100002101000021010000E8
:1000900021010000210100002101000021010000D8
:1000A00021010000210100002101000021010000C8
:1000B00021010000210100002101000021010000B8
:1000C0000348854600F0C6F900480047F1AB000040
:1000D000301D002004207146084202D0EFF3098051
:1000E00001E0EFF308807146004A1047F12200005A
:1000F0000C480D4901600D4901600D4901600D4A30
:100100000D4911600D4A0E491160002101600D4832
:1001100080470D480047FEE7FEE7FEE7FEE7FEE703
:10012000FEE700000001004059000000160000003A
:100130008800000024000040A55A00008002004012
:100140000100000061980000C100000030B50B46BE
:10015000014600202022012409E00D46D5409D42A1
:1001600005D31D469540491B254695404019154627
:10017000521E002DF1DC30BD70B50024254600284C
:1001800001DA01244042002901DA01254942FFF742
:10019000DDFFAC4200D04042002C00D0494270BD8F
:1001A00003460B439B0703D009E008C9121F08C090
:1001B000042AFAD203E00B780370401C491C521E3B
:1001C000F9D2704730B504460020034600E05B1CBE
:1001D000934203D2E05CCD5C401BF8D030BD000000
:1001E0000FB400B58DB009900B9010A900200091BC
:1001F000C0430A9000200C900648069006480790DD
:100200006A4609A80F9900F0F3F80DB008BC04B0D5
:10021000184700001104000031040000FFB500275A
:10022000FF4383B000205C6801909E681D46A96969
:100230007F1C049888470090296A88470028F6D1D7
:100240000098401C0CD0032040028443002E19DD8E
:10025000600614D500982B2809D02D280FD103E073
:100260000020C04307B0F0BD012080020443A9690B
:100270007F1C04988847761E0090002E02DD0098AF
:10028000302803D00598002825D035E00120400211
:100290000443A969761E7F1C049888470090002EAD
:1002A00003DD782805D0582803D00598002810D001
:1002B00022E00598002801D010281DD1012040021D
:1002C0008443A969761E7F1C0498884700901020FB
:1002D00002E0082000E00A2005900DE0012149021B
:1002E0000C43059A0199761E514308180190A9699B
:1002F0007F1C049888470090002E05DD0599009822
:1003000000F061F80028E9DAE96904988847A00557
:1003100002D40120C043A5E7E00722D1600611D531
:100320006005019800D5404229680A1D2A600968C5
:10033000220501D5087014E0220701D5088010E0DD
:1003400008600EE02868011D29600068210502D5BB
:100350000199017005E02107019901D5018000E0B4
:10036000016038467EE7F0B51FB40646002082B033
:1003700005464024019100901BE0019922460F465A
:10038000304600F089F8049A059B801A994110D3F1
:1003900010461946224600F06FF8361A8F41019731
:1003A000224601200021009F00F066F838184D41D8
:1003B00000902046641E0028DFDC019B009829463F
:1003C000324607B0F0BD3A2800D23038202302462A
:1003D0009A43412A01D310463738884201D300207E
:1003E000C04370470268137851180160184670477F
:1003F00010B5D160044951610449116200211161B5
:10040000114600F061F810BDE5030000BB040000D8
:100410004268002A08D001680B78491C002B03D0E1
:10042000521E06C0184670470121C160881E7047E1
:100430004268002A0BD0C3680168002B07D183688B
:100440008B4204D0491E521C06C000207047002079
:10045000C0437047064C0125064E05E0E36807CC13
:100460002B430C3C98471034B442F7D3FFF72CFED3
:1004700084C10000A4C1000010B5202A04DB01469D
:10048000203A9140002010BD914020239C1A034641
:10049000E3401943904010BD10B5202A04DB084604
:1004A000203AD040002110BD0B46D340D04020243C
:1004B000A21A91400843194610BD10B50F21C0B2D1
:1004C000490200F09DF910BDF3B58DB000200A90EF
:1004D00001200B90002608460C300C4609906269FA
:1004E000012109989047051E2ED0252D2DD0216A77
:1004F0008847002818D06269012109989047216A2D
:1005000088470028F7D1411E62690998904700E0AA
:10051000761CA1690D988847216A88470028F7D181
:10052000E1690D988847DAE7A1690D988847074681
:10053000A84201D1761CD2E7E1690D9888477F1C5B
:1005400002D10A98002877D049E1002762693D4628
:100550003946099890472A280CD1626901210998E7
:100560009047012506E00A214F433F18303FEBD466
:1005700010200543626901210998904701463039EE
:100580000A2903D29B498F42DEDCECE7E90600D45E
:10059000994F6C280AD04C2810D0682824D06A289B
:1005A0002ED074280CD07A280AD00DE0626901217F
:1005B000099890476C2823D004211CE02020054393
:1005C0006269012109989047A760656065284FD04E
:1005D00026DC582839D01ADC452849D012DC2528D9
:1005E00034D04128B0D143E0626901210998904795
:1005F000682802D008210D43E6E70120C002DEE7AB
:100600000220DCE7462833D047282CD130E05B2895
:1006100070D061282CD063286CD0642823D161E08D
:100620006F284FD009DC662822D0672820D069289F
:1006300026D06E2817D12EE0CDE070284DD073283B
:100640006FD075284ED078280DD154E0A1690D984F
:1006500088470546252800D16CE7E1690D98884751
:100660006D1C00D16DE7BAE00A224CE00A2252E08C
:10067000012023466A46C0430D99C046C046A3E008
:100680002846402108436060A807234601D5002280
:1006900039E000223FE0E80700D020E72068011D94
:1006A00021600068290501D5067018E7290701D5E2
:1006B000068014E7A90703D5F117066041600EE72D
:1006C00006600CE72846402108436060A8072346DF
:1006D00001D5082217E008221DE0484928460840B5
:1006E000606016E02846402108436060A807234662
:1006F000BCD5B9E715E02846402108436060A8074B
:1007000007D5234610220120C0430D99C046C0469C
:100710005AE0234610220120C0430D99FFF77EFDC9
:1007200052E000210C910B460091632802D05B2817
:1007300007D043E0E80601D40120A060012000902A
:100740003CE062690121099890475E2805D10120AB
:100750000C9001466269099890472169002906D1E9
:100760000B4601AA8F00491CD3510829FADB002847
:1007700035D0216900290ED1C117C90E09184A11B7
:10078000930001AA9A1849094901411A01201368E6
:1007900088400343136062690121099890475D28EE
:1007A000E5D10C98002808D0002001AB81005A58F0
:1007B000401CD2435A500828F8DB01AB01202246E6
:1007C000C0430D99C046C04600280ADA401C06D135
:1007D0000B98002803D00020C0430FB0F0BD0A984A
:1007E000FBE7E90702D10A99491C0A913618002053
:1007F0000B9074E6CCCCCC0CFFFFFF7FF1F7FFFF32
:100800007F2801D9002207E0054B42089A5CC00707
:1008100000D112091207120F0120904008407047C2
:10082000FCC00000FFB581B001980A9C1D460F4630
:10083000042808D105F0EAF9002804D01B48007804
:1008400000282AD102E0052005B0F0BD184E30780E
:10085000002822D103980078800725D515491D204E
:100860000871E01C08700020487004228A70C8706B
:100870007878487138788871002004E02A5C0B1879
:10088000401CDA71C0B2A042F8D3E41DE2B20949BB
:1008900001980AF013FC002801D00120D4E7307839
:1008A000401C30700020CFE70820CDE72C0300204B
:1008B00079030020E8160020FFB581B001980A9C5A
:1008C0001D4617460E46042808D105F09FF900285A
:1008D00004D017480078002825D102E0052005B093
:1008E000F0BD3878C00720D0124A1B201071E01CE0
:1008F00010700020507004219170D0707078507189
:1009000030789071002004E0295C1318401CD971E4
:10091000C0B2A042F8D3E41DE2B2064901980AF041
:10092000CDFB0028DBD00120D9E70820D7E7000065
:100930002C030020E8160020704710B50846114629
:1009400000F0BAF810BD704730B587B0040700203A
:1009500069460874240F062011496043411804AD0C
:100960000622681CFFF71CFC04A80AF059FB21466C
:100970000CA009F0FFF8062211A16846FFF710FC51
:1009800001A80622691C0230FFF70AFC0A2069460A
:1009900008730D21684609F043F807B030BD000028
:1009A0000CB6000073656C656374656441646472C1
:1009B000496E646578203D202564200A000000000F
:1009C000425441444452000010B5054809F0D2F8A1
:1009D00004A009F0CFF8024809F0CCF810BD0000DF
:1009E0003CC100005072657373203120746F207316
:1009F0007461727420534C5420746573742E0A0011
:100A000008B5415C0D2904D00A2902D00020C0435A
:100A100008BD002100916A4607A1FFF7E1FB00989D
:100A2000012807D105484178012903D10178022224
:100A300011430170002008BD256400001000002053
:100A400010B5FFF7C1FF02480AF0B4FB10BD00006B
:100A5000190B000010B508F065F9014610280AD0FE
:100A60000120074A00291070507005D005A009F038
:100A700081F8FFF7A9FF10BD0BA009F07BF8F8E79C
:100A800010000020526573756C743A4641494C2041
:100A9000204572726F7220436F64653A203078256A
:100AA0003032780A00000000526573756C743A5059
:100AB0004153530A00000000F8B5054602460E46B1
:100AC0000C270DA0FFF77EFB0E4C002803D12078E9
:100AD0002021084320700D2D0CD13A4631460AA042
:100AE000FFF770FB002805D1207810210843207003
:100AF000307BE070F8BD0000534C542D54582D54F9
:100B00004553540010000020534C542D5458502D80
:100B1000544553540000000010B501280CD00E4B72
:100B200003281A7809D007280ED00A2804D148785B
:100B30001871402002431A7010BD48789870082040
:100B400002431A7005A003E0802002431A7006A039
:100B500009F010F810BD000010000020436F6E6E09
:100B600065637465640A0000446973636F6E6E6543
:100B7000637465640A000000014A5268104700006F
:100B80006C030020014800687047000058030020F3
:100B900010B50C484468002C13D001688C4203D176
:100BA00000214160016001E021684160207906492F
:100BB00050380006800D095820468847204600F02E
:100BC00017FB10BD1803002098BD0000F8B500F019
:100BD0000BFA04460125030008F0DCFF0504070AB0
:100BE000160D150005F07AFB0EE001F05BFC0BE042
:100BF00001F092FB08E000F007FA002804D120463B
:100C000000F0E6FB00E0092519480168491C016075
:100C100009F016FA00F0F8F9012827D1154CE07E0A
:100C200004F0F4FF01281FD121460125FB22E03901
:100C3000114801F0FAFB2646E03EB1780F4A8900E0
:100C40005158E07E8847002810D1B07805280BD194
:100C50003079132808D1E07E317A000208436946D2
:100C600008800520FFF788FF08F058F92846F8BDEE
:100C7000CC0200200F1B0020E8160020E0C000007E
:100C800010B572B609F0DAFE09F0C4FE09F0F0FE04
:100C900000211920800107F0C1FE01F04FFB09F08F
:100CA000F9FE09F0F1FE07F0E5FC07F0F3FF62B68C
:100CB0000D49042009F0A8FA007801280A490CD04F
:100CC0000A2009F0A1FA0024FF21204609F084FA45
:100CD000641CE4B2052CF7D310BD022009F094FA8D
:100CE00001490320EDE700008A19002000B50CA09F
:100CF0000FC889B0079304AB07C300206A46107081
:100D000020215180918007215173907368460FC84C
:100D10000AF01CF90D2104A80AF0E0F809B000BDA2
:100D20000C0201060809534C5444454D4F00000085
:100D300010B5FFF7DBFF0AF0EDF810BD0EB509495D
:100D40000EC900910192810F8A00029369468A5868
:100D5000054951184A68C306DB0E0120984002433A
:100D60004A600EBD8CB500000002004002490A68CE
:100D700002430A60704700000002004010B508F00E
:100D800025FD0148006810BD0000002010B508F0E6
:100D90001DFD0448406B41070348490F0068C840E7
:100DA00010BD0000000200400000002010B508F057
:100DB0000DFD0448406B4006410F03480068C840E1
:100DC00010BD0000000200400000002008B511A086
:100DD00000681149009009680020052212041142A0
:100DE00016D1080301D50D4800E00D488A030FD441
:100DF0000A04920F6B469B5CCA058904D20DC90E8A
:100E0000891C8008921C59435043FFF79FF98000CA
:100E100008BD00000102020440020040001BB700B0
:100E20000048E80108B511A0006811490090096860
:100E3000002005221204114216D1080301D50D48E5
:100E400000E00D488A030FD40A04920F6B469B5CA6
:100E5000CA058904D20DC90E891C8008921C594309
:100E60005043FFF773F9800008BD0000010202043F
:100E700040020040001BB7000048E801F3B51248EB
:100E800081B005690F4610200F4C0540403C20689A
:100E9000042630432060102000F074F820690721F8
:100EA00008432061206A000900013843206220695C
:100EB000884301990843206108F088FC002D02D185
:100EC0002068B0432060FEBD40020040F0B5194BE1
:100ED00088B0F0CB009401ACE0C478CB04AF78C705
:100EE000840A23061B0E0ED003039B0F9B0004AD48
:100EF000EB58114D5B19E5B28405E40EA5401C6862
:100F0000AC4314431C60420E520710D08200920F73
:100F100092006B469A58084B103BD21803015B0FA6
:100F2000C001C00E8340106898430843106008B0A9
:100F3000F0BD00006CB500002002004006490968C1
:100F400048430649486100228A6105200861086912
:100F5000C003FCD50A6170470400002000E000E0F7
:100F60000649096848430649486100228A6105200C
:100F700008610869C003FCD50A61704704000020BD
:100F800000E000E010B504460749084B05E00A46BA
:100F9000491E002A01DC002010BD1A69204690433A
:100FA000F5D1012010BD000080F520004002004076
:100FB0000B490A780B49012A097804D9521E93007B
:100FC000D218511889B21E2907D329221E3951433C
:100FD00089B2814201D30020704701207047000090
:100FE000A3020020940200200649002072B6C2002D
:100FF00052185268002A04D162B6401CC0B20528BB
:10100000F4D37047901000200348C07EFF2801D021
:1010100001207047002070470F1B00200148007816
:10102000704700008C020020F8B5057A8821364A06
:10103000694306468C18C17A14300C360090032997
:101040002AD0042927D13148AF00C55904222846A7
:101050001E30009901F01DFA29461A312046082257
:101060005830009101F015FA08223146009801F03D
:1010700010FA29462846123122300AF0BDF8B02075
:10108000287122480021C151284608F079FB2046EA
:1010900060300AF0E8F8F8BD3046163005F04EFA38
:1010A0003146204608220A31603001F0F2F931461B
:1010B000204604221231583001F0EBF900F024F9F7
:1010C00007466E2038713846BD720A2231460B3011
:1010D00001F0DFF90421384608F052FB30460AF0EF
:1010E000C2F8204608223146683001F0D2F9204685
:1010F00004225C30009901F0CCF92B460C2204212B
:10110000304604F033FFF8BD881100207C16002023
:1011100072B6002800D0FEE762B670470248016848
:10112000490849000160704700C0004003460121A2
:1011300000B5002049058B4203D100F017F80028C4
:1011400011D109492222CA604B6001220A610A6951
:10115000D207FCD10A68520605D508684022104320
:1011600008600020C04300BD00C0004000200B49C3
:101170002222CA60012252054A60094A8A6001227D
:101180000A610A69D207FCD10A68520605D50868C7
:101190004022104308600020C043704700C0004058
:1011A00003AA5500024801680122114301607047FB
:1011B00000C00040054A2123D360506091600120A7
:1011C00010611069C007FCD17047000000C00040EA
:1011D00072B6002808D0054A5168884204D00160E0
:1011E00050601078401C107062B670479402002066
:1011F000002808D0044A5168884204D00160506039
:101200001078401C107070479402002010B5014601
:10121000002200290FD0521C0B68D2B2002B01D043
:101220001946F6E772B6044B5C680C605860187893
:101230008018187062B610BD94020020074B01465A
:1012400000290AD01A78521C1A700A68002A01D0A4
:101250001146F5E75A680A6058607047940200200A
:1012600008B50648016A090401D5C11301E0016A05
:101270000091016204F0C6FD08BD0000404100403D
:10128000826901238B409A438261C269024B8B4081
:101290009A43C261704700000100010010B58369E4
:1012A000140E8C4023438361C3691202120A8A40E0
:1012B0001343C36110BDF0B5002301273C469C4099
:1012C0000C4208D005685C000326A640B5431646CC
:1012D000A640354305605B1C102BEFD3F0BD00002A
:1012E00072B6084A506800280AD01178002906D042
:1012F000491E1170016851600021016000E000206A
:1013000062B670479402002006494868002807D05A
:101310000A78521E0A7002684A6000210160704714
:1013200072B6FEE79402002030B4134D6C68002CB6
:101330001FD000281CD00122214629280CD9521C7C
:101340000B68D2B2002B05D02938C0B21946292823
:10135000F5D801E029280BD8287813460A3398429B
:1013600006D3801A2870086868600020086000E0D2
:101370000024204630BC70479402002030B572B67D
:10138000124D6B68002B1ED000281BD0012219467D
:1013900007E0521C0C68D2B2002C05D02938214637
:1013A000C0B22928F5D801E029280BD8287814469E
:1013B0001E34A04206D3801A287008686860002096
:1013C000086000E0002362B6184630BD9402002099
:1013D00010B507F091FD0446007960380106880DCC
:1013E00003490958204688472046FFF7F1FE10BD03
:1013F00084BF000010B5037A052B16D288210B4A52
:101400005943515C01290FD0417A15290CDA05297D
:101410000AD0132908D101220221093004F08AFDE3
:10142000B121002004F0ECFD00BF10BD88110020A8
:1014300070477047704700BF7047000070B572B6C4
:101440001F49497A62B68906890F0BD00C24FFF731
:1014500047FF61210171D3218172C472042108F018
:1014600071F970BD00240646164D0836E000001BD9
:10147000295CFC2906D040190722314600F0B5FF4F
:10148000002803D0641CE4B2042CEFD3042C0BD14D
:101490000024E000001B285CFC2807D0641CE4B298
:1014A000042CF6D3042C09D00024D0E7E000001B64
:1014B00040190722314600F0B8FFF3E70724C6E7DA
:1014C000A0020020D814002010B572B60E48407A51
:1014D00062B68006800F0BD00C24FFF701FF61215C
:1014E0000171D2218172C472042108F02BF910BD60
:1014F0000020064AFC21C3001B1A401CC0B2D15474
:101500000428F8D30024E8E7A0020020D814002023
:10151000FEB5044646898089864205D030184608C3
:10152000012006436681A681FFF7DAFE05462146C3
:101530000C31103006220091029000F076FFA08955
:101540000A214843A081208A2349C0002082277AAB
:10155000882078434418D521002004F051FD20460E
:10156000263006220099019000F03FFF00282BD082
:101570001A49002042008A5AB24203D8401CC0B225
:101580000728F7D3401C6873608B3B460830E8821D
:1015900028460B2200210D3004F0CCFC6C20287171
:1015A000284606220C30029900F066FF0C49EF72C3
:1015B000B8000D50608B06220830A0852684009963
:1015C000019800F032FFFEBDB020287100212846AE
:1015D00008F0B8F8FEBD0000881100208CBA0000A9
:1015E0007C160020F8B5064672B65748807A400748
:1015F00062B60BD5FFF774FE61210171CF218172B4
:101600000C21C172042108F09DF8F8BDCF21002003
:1016100004F0F6FC04F062FC07460428F5D04B4CBD
:1016200031460D220831201D00F0FFFEFFF758FE65
:1016300005466A2028710020A8722873A8763146D2
:10164000284607220D310D3000F0EFFE4049EF72C1
:10165000B8000D5027700120607088203D49784304
:101660004418032020703C483C49807803228007BE
:10167000000F085860607800381810314118204673
:10168000083000F091FE3549204625224C312E309D
:1016900000F08AFE2C49204605224031143000F02B
:1016A000C4FE2E497807400F0A39085C607620771F
:1016B000F08A318B884203D040184008012108434A
:1016C00022498200C882E08384210A530A214843C8
:1016D00081B2224AE181002061821C324300D35A48
:1016E0008B4203D8401CC0B20728F7D3174FE072D3
:1016F000708B3883708B20820420B880F880B08B88
:101700007883C00060853946284606221631143099
:1017100000F08BFEB888810040180004000C1049CE
:10172000B88000D1B980F888820080180004000CCD
:10173000F88000D1F98072B6034A0420917A0143FF
:10174000917262B6F8BD0000A0020020BC14002017
:101750007C160020881100208C02002070BA000046
:10176000FFFF000070B5124DA87A40071ED5114842
:10177000FF2104780170204604F09EFC0E4AA1006F
:1017800050580024002801D0545001E0FFF7A8FD74
:1017900061210171D0218172C472042107F0D2FF4E
:1017A00072B6A87AFB210840A87262B670BD00002C
:1017B000A0020020BC1400207C16002070B5054655
:1017C000FFF78EFD0446A87A2946C01CC2B2204607
:1017D0000831083000F029FEA87A6072A87A00214A
:1017E000072801D821200155EF202071EA7A2B7AB1
:1017F00088201D4D58434019022A03D14225057007
:101800008030C180184604F001FA002819D0174929
:10181000D800401872B6016800290CD0921E13003F
:1018200008F0B8F9100B1010101020202010102014
:10183000102020201020446012E04168216007E061
:1018400062B670BD4268E57AD37AAB4202D32260B9
:101850004460F5E78A4200D1046011682160406865
:101860000460EDE70C60FBE78811002058140020AD
:1018700070B50546FFF734FD044651202071294616
:10188000204620220831083000F0CFFD204607F026
:1018900069FF70BDF8B5067A882014497043451871
:1018A00000275320475575204755FFF719FD612143
:1018B0000171DD218172C7720673697804464A0797
:1018C0000D300621002A06DA03220270417002223E
:1018D0003346112103E00170334601220D2104F04B
:1018E00029FB0421204607F02DFFF8BD88110020B8
:1018F00070B50546FFF7F4FC0446542020712946D4
:10190000204611220831083000F08FFD204607F0F4
:1019100029FF70BD70B50546FFF7E2FC0446522072
:1019200020712946204600220831083000F07DFD54
:10193000204607F017FF70BD00BF704710B5FFF7D6
:10194000CFFC61210171C12181720021C1722C2261
:101950000273417301218173042107F0F3FE10BD6E
:1019600010B5FFF7BDFC044661202071C620A072AF
:101970000020E0722046082209490C3000F014FDD6
:10198000084800784006400F072803D1207B400814
:10199000400020730421204607F0D4FE10BD000053
:1019A00056BA00008C02002010B50446FFF798FCE0
:1019B000217A61220271EB2282720022C2720173CB
:1019C00088225143084A0323891860314A7F4273B1
:1019D000897F8173042A00D14373042900D1837362
:1019E000042107F0AFFE10BD8811002070B5044639
:1019F00005460C3408220F49204600F0D5FC0E485D
:101A000000784006400F072803D160784008400066
:101A100060702B7A042B02D20822114601E00822C2
:101A20000E21204604F086FAD821002004F0E8FABE
:101A300070BD000056BA00008C02002010B5FFF700
:101A40004FFC61210171D12181720021C1720421F9
:101A5000017307F077FE10BD70B5057AFFF740FC03
:101A6000044661202071D720A0720020E072257307
:101A70008820454306480522291820460D30143198
:101A800000F0D3FC0421204607F05CFE70BD00008E
:101A9000881100207047704700BF704700BF704733
:101AA00070B572B61849497A62B68906890F0BD0AB
:101AB0000C24FFF715FC61210171D4218172C472DD
:101AC000042107F03FFE70BD0024104D0646083685
:101AD000E000021BA85CFC2806D050190722314602
:101AE00000F083FC002807D0641CE4B2042CEFD380
:101AF000042C06D00024DCE7FC20E100091B68541C
:101B0000F6E71224D5E70000A0020020D814002038
:101B100010B5144C0146E07A000701D5124801E0E7
:101B200011485C301C3020610A7A0931931DC3775B
:101B300000F07BFCFFF7D4FB61210171CA218172A7
:101B40000021C172042107F0FDFD72B6E07A0007A2
:101B5000A07A02D5F721084001E008210843A072CD
:101B600062B610BDA0020020B810002070B5234D51
:101B7000AA7AD20701D00C2434E00146204C0F226F
:101B80000831201D00F051FC207A012803D0A188E3
:101B90008A00891800E0332161611A49085C012834
:101BA00003D1A17A002900D08120617A002901D0D7
:101BB000402108432072607C12498000C4314118E2
:101BC0000E4804223C3000F0EFFB72B6E87A800643
:101BD000A87A02D5DF21084001E020210843A8723D
:101BE00062B60024FFF77CFB61210171C82181727C
:101BF000C472042107F0A6FD70BD0000A002002001
:101C00001411002042BA0000F8B5007A4649C50711
:101C1000C87A464A464B5CD0002572B6012862B6A7
:101C20002CD04248007A07073F0F72B604F064F9DF
:101C3000064662B6052803D1002F0FD0012F0DD024
:101C400039483C3001783948017000218161B00089
:101C5000374900900858002802D004E00D250DE017
:101C6000FFF73EFB0446002F21D0012F0AD0B02001
:101C700020710021204607F065FD002572B6002D79
:101C800020D024E02948807A002800D001256573FF
:101C90003C20A0722549204606220B310E3000F070
:101CA000C4FB204606222349143000F07DFB6A2045
:101CB0002071E672012020731D4900980C501B48CA
:101CC0004670DAE718480122817A1143817262B6C0
:101CD0001FE072B68C7A640864008C7262B6C0072A
:101CE00016D15078114A882141437432545C022C39
:101CF0000ED005280CD201245454810058580028D5
:101D000006D0B022027100225A50114607F01AFD87
:101D10000025FFF7E5FA61210171CC218172C572BE
:101D2000042107F00FFDF8BDA002002014110020CF
:101D30007C160020F2BB000070B50446FFF7D0FA15
:101D4000257A61210171EE2181720021C172057332
:101D5000042107F0F7FCA089FB2801D9FB20A08112
:101D6000E1891148814200D9E081218AFB2906D905
:101D700088210E4A69438918803189782182618AD5
:101D8000814200D960820A49E800401821460C319E
:101D900008220C4600F049FB2B460822142120465D
:101DA00004F0C8F870BD0000480800008811002049
:101DB0009016002070B50446FFF792FA6121017178
:101DC000EC2181720021C172617A11258A08002AF2
:101DD0000DD1A27A93080AD1237A0D4C002B04D09E
:101DE000012B0CD0022B0ED106E0914201D0C5721E
:101DF00009E06170A17006E00029FAD103E0002A31
:101E000001D06270A270042107F09CFC70BD00003C
:101E1000B402002010B50949027A0A70427A4A7069
:101E2000807A8870FFF75CFA61210171C4218172A8
:101E30000021C172042107F085FC10BD6D03002054
:101E4000F8B501460546093105220F46184800F04D
:101E5000CCFA00282BD005223946154800F0E5FAC7
:101E6000144E0024204688214843315C01290FD0BC
:101E70008019418B052208318185E9810C49143094
:101E800000F0D3FA234607220121384604F052F825
:101E9000641CE4B2042CE5D3FFF722FA612101713E
:101EA000D62181720021C172042107F04BFCF8BDDC
:101EB000E00200208811002070B50246067A8820D2
:101EC000234970434418052E38D2907A00258108A2
:101ED00011D1D17A8B080ED1527A002A09D0012A69
:101EE00013D0022A0ED020466030417F8175817F59
:101EF00010E0884201D011250DE02146603188753F
:101F0000C87508E00028F8D105E0002903D0204674
:101F100060308175C175ED21284604F071F8002DFF
:101F20000CD120466030817D427F914207D1002153
:101F30008175D2B23146002004F052F870BD2046BF
:101F4000334602221621763003F0F4FF70BD000004
:101F50008811002010B5134CA27A520701D00C242E
:101F600014E072B6062201460E4808314B3000F0EC
:101F70005CFA72B6E07A8006A07A02D5DF210840CA
:101F800001E020210843A07262B60024FFF7A8F9FF
:101F900061210171C7218172C472042107F0D2FB53
:101FA00010BD0000A002002010B5144C0146E07ADC
:101FB000C00601D5124801E011485C301C30206198
:101FC0000A7A2030C277093100F02FFAFFF788F93A
:101FD00061210171CB2181720021C172042107F0BE
:101FE000B1FB72B6E07AC006A07A02D5EF210840B4
:101FF00001E010210843A07262B610BDA0020020CB
:10200000B810002010B5007A0F49C207887A72B65E
:1020100016D0820707D40D4A0123137093881381C9
:1020200002221043887262B6FFF75AF961210171EA
:10203000CE2181720021C172042107F083FB10BD03
:10204000FD221040EEE70000A00200207C110020DD
:10205000F8B5044672B61F4FB87A800762B601D54C
:102060000C262BE01C4D2146002604220A31A81C18
:1020700000F0DBF9207A6870A07BA871E07BE87142
:102080006888164A904200D96A80688881004018A2
:1020900081B26980A888904200D9AA80A88882006D
:1020A0008018A880081A6880F87A4006B87A02D5A5
:1020B000BF21084001E040210843B872FFF710F942
:1020C00061210171CD218172C672042107F03AFBB2
:1020D000F8BD0000A00200207C1100203333000076
:1020E00070B50546FFF7FCF80446532020712946D9
:1020F00020461B220831083000F097F9204607F0EF
:1021000031FB70BD7047704710B5FFF7E9F8044622
:10211000062207490C3000F088F961202071C220A6
:10212000A0720020E0720421204607F00BFB10BDD6
:102130008E0200207047000010B5FFF7D1F804466A
:10214000252210490C3000F02FF961202071BF20AA
:10215000A0720020E0720421204607F0F3FAFFF796
:10216000BFF8084904461B222531093000F01CF94C
:10217000722020711B2020720421204607F0E2FA11
:1021800010BD0000E8BF000010B5FFF7A9F8044635
:10219000082207490C3000F007F961202071C020A7
:1021A000A0720020E0720421204607F0CBFA10BD97
:1021B00028C0000010B5FFF793F80446082207492D
:1021C0000C3000F0F1F861202071BE20A0720020D8
:1021D000E0720421204607F0B5FA10BD4EBA0000A7
:1021E00070B5047A0546052C0FD2B221002003F009
:1021F00007FF0C3505220549284600F0D5F823468F
:1022000005220C21284603F095FE70BD3DBA000062
:10221000704770477047000010B5047AFFF760F808
:1022200061210171C32181720021C17204730121F6
:10223000417388214C4304496118497F817304210B
:1022400007F080FA10BD00008811002010B504F0DE
:1022500049FA10BD7047000010B50D49027A0A70A6
:10226000427A4A70C27A8A70427BCA70C07B087117
:102270000820FFF783F8002808D061210171B321FD
:1022800081720021C172042107F05CFA10BD0000C8
:102290007403002010B50749807A0870FFF720F812
:1022A00061210171B92181720021C172042107F0FD
:1022B00049FA10BD6C03002070477047417A044A08
:1022C00089005258037A01460B3118461047000026
:1022D0006CB9000030B4427A044B92009B58047AE7
:1022E0000246817A204630BC0B321847B8B800004D
:1022F000044603A007F03EFC204609F0D3F8FEE7B1
:10230000496E2048617264204661756C7420486192
:102310006E646C65720A000010B506F0EDFD0446AF
:102320000079054990380006800D095820468847F5
:102330002046FEF74DFF10BD20BA00000F4A0020D6
:10234000342141438B183433401CC0B253503B28D6
:10235000F6D3342100234843135009483C214260FE
:1023600001704370074A1846C10053508918401C39
:10237000C0B24B600528F7D370470000600400200E
:10238000940200209010002030B40023002A07D9C6
:10239000CC5CC55CAC4203D15B1CDBB29342F7D38F
:1023A000D01A30BCC0B27047002A05D0521E1206A7
:1023B000120E8B5C8354F9D17047002A0BD010B4F5
:1023C0000023CC5C521ED2B25B1C8454DBB2002AC8
:1023D000F7D110BC70477047002A05D0521E120674
:1023E000120E8B5C8354F9D1704730B40023002A5D
:1023F00007D9CC5CC55CAC4203D15B1CDBB2934219
:10240000F7D3D01A30BCC0B2704730B40023002AD2
:1024100007D9CC5CC55CAC4203D15B1CDBB29342F8
:10242000F7D3D01A30BCC0B27047002A05D0521E74
:102430001206120E8B5C8354F9D17047002A0BD020
:1024400010B40023CC5C521ED2B25B1C8454DBB2AD
:10245000002AF7D110BC70477047002A0BD010B487
:102460000023CC5C521ED2B25B1C8454DBB2002A27
:10247000F7D110BC704770470023002A08D910B468
:10248000CC5CC4545B1CDBB29342F9D310BC7047E4
:102490007047002A05D0521E1206120E8B5C835420
:1024A000F9D1704710B506F027FD044600790549BB
:1024B00080380006800D0958204688472046FEF7E0
:1024C00087FE10BD30C00000F0B50646077AC4682C
:1024D000882071497843451828468DB0603008F04F
:1024E000BBFE204629461430703105220C90FFF7C0
:1024F000D0FF29462046583108221930FFF7C9FF7E
:10250000042F03D2207E802108432076A57A49201B
:102510006946087000208873CD736F460D22781CC1
:102520000C99FFF7B6FF00205C493A5C095C51400A
:1025300008AA1154401CC0B21028F5D3104608F068
:102540007FFE08F053FE102254496846FFF744FF0F
:10255000012069464870707A887008A808F083FEE8
:10256000002008AE315C3A5C51403154401CC0B28E
:102570001028F7D3304608F063FE08F037FE01203C
:102580006A46107400219177D07704A80D2201309B
:102590000C99FFF77EFF102240496846FFF71CFFA9
:1025A00021460B312A4668460C91FFF772FF08A8B6
:1025B00008F059FE0020315C3A5C51403154401C17
:1025C000C0B21028F7D308A808F03AFE08F00EFEB3
:1025D00008A808F048FE04A808F032FE08F006FE3D
:1025E000684608F040FE002021183B5CCA7A203182
:1025F0005A40401CC0B28A700728F5D360696F4604
:10260000FF220346F97913434B40214629310B70D1
:10261000030A3F7A13437B404B70030C6F467F7A6B
:1026200013437B40000E8B7010436F46BA7A5040C4
:10263000C870217EF87A41400C98203081700020CB
:1026400021183B184A7E1B7B20315A40401CC0B2E7
:102650008A730428F4D30020B877F87704A808F028
:10266000EFFD08F0C3FD684608F0FDFD0020315C79
:102670003A5C51403154401CC0B20428F7D3601971
:10268000042208A92230FFF704FF281D2121085544
:1026900065720DB0F0BD000088110020F2BB000093
:1026A000014610B51831083008F0A6FDFEF72CFEE3
:1026B000044661202071D920A0720020E0722046DB
:1026C0000C3008F0E1FD0421204607F059F810BD58
:1026D000F8B5067A8821134A71438C182146603177
:1026E0000D46093008F088FDFEF70EFE61210171EC
:1026F000DC2181720027C7720673042107F040F8BD
:10270000002233460521104603F030FC284608F02D
:10271000AAFD05480221817169752767A7672F7592
:102720002F77F8BD88110020A002002010B51049B5
:102730000830097804460A070E49120F5118102272
:10274000FFF74AFE21460A4808F056FDFEF7DCFD79
:10275000044661202071DA20A0720020E072204639
:102760000C3008F080FD0421204607F009F810BD68
:10277000CC02002026BB0000F8B5044613300090C0
:10278000FEF7C2FD0646102222300099FFF781FEB7
:10279000009803F0D3FE257A3046164EAF00F05174
:1027A000FEF7B2FD6221017100214172DB21C1728D
:1027B000042106F0E5FF009808F055FDF059214688
:1027C000093116220C460830FFF763FE88200A49BB
:1027D000684340186030407D2B46800705D00022BA
:1027E0000A21104603F0C2FBF8BD16220321204641
:1027F000F8E700007C1600208811002010B5FEF7D5
:102800006FFD61210171E52181721E21C1720421D8
:1028100006F098FF10BD10B5FEF762FD6121017151
:10282000E42181720121C172042106F08BFF10BDE9
:10283000F8B505460746067A8820D74970434418FC
:10284000F97AD6480C35042240780B0007F0A2F93B
:10285000190E33323D3D4D51668497A2A7AAC98413
:10286000FDFDC8FDFDFCFBE5FA32FD002078562891
:1028700007D1802020707D20025D31462A2003F0A0
:10288000AFFB21462046062226310E30FFF7ADFD74
:1028900000280FD0FEF724FD04466C20207106228C
:1028A000E672E91C20460C30FFF7BFFD04212046EC
:1028B00006F048FFF8BD20785628FBD18120207013
:1028C0006034627F31462A209BE0FEF709FD044612
:1028D00055202071394620461A2208310830FFF76A
:1028E000A4FD204606F03EFFF8BD00223346062137
:1028F00053E0042E05D3002233460621104603F090
:1029000019FB387B022803D00122314600207FE0EA
:10291000FEF7E6FC67210171867219E020784E28E7
:102920000ED0562816D028781628DDD16034627F64
:1029300031461A2003F054FB0020A075E075F8BD65
:102940002270FEF7CDFC6D2101711A218172C672D1
:102950000421ADE72270E9E7082291492846FFF7F4
:1029600023FD904800784006400F072803D168787F
:1029700040084000687008223346092193E0FEF7C2
:10298000AFFC04466D2020710020A072E672082280
:10299000294687E7002233460B21002056E0042E0B
:1029A000F8D3F8BD2078432810D08C280ED07E486C
:1029B00040780007F5D5FEF793FC044665202071AA
:1029C00005222046A67229460B306DE77449052280
:1029D00019392846FFF7E8FC052233460C2162E04E
:1029E0006D1C207843280FD044280DD0562812D0D3
:1029F00028462038C07F1628D3D16034627F2878DB
:102A0000314603F0EDFAF8BD2270287800223146F5
:102A100003F0C8FAF8BD2270EFE7042E19D3297825
:102A20006A7811408907890F04D07D22125D914395
:102A3000084001D16034607F2870022268703346FC
:102A4000172130E00FE055E04CE09EE003F072FA11
:102A5000F8BD2178162240291CD041291AD05629C8
:102A60001BD0FF2EF4D029786A7811408F07BF0F52
:102A700029D022466032917D002900D00F40517F3D
:102A80003840884307001ED0B9421BD0B8070CD588
:102A900002270DE02A702A2001E02A70232002225A
:102AA0006870334611212846D0E7F8070AD001277D
:102AB0002F706F70608B21460830A08502222C3168
:102AC000A81C03E00027042238492846FFF7ADFC84
:102AD000334604221821284603F02CFA6034A775E7
:102AE000E775F8BD3248F100081833460822152171
:102AF00003F020FA2E4A0021F0008718284A4800E7
:102B000008322B5A125A934200D92A523A5A2B5A57
:102B10009A4200D22A52491CC9B20429EED36888CD
:102B2000298880080E3880B2814202D98021085558
:102B300001E0802211554008C01F298880B28142DF
:102B400002D97F21085501E07F200155E888A98836
:102B500080080E3880B2814202D98221085501E0F6
:102B6000822211554008C01FA98880B2814202D933
:102B70008121085501E0812001557F20025D8034CC
:102B80006178304603F01DFAF8BD0122072138466E
:102B900033460B305AE7000088110020B4020020B1
:102BA00056BA00008C02002074030020F2BB000023
:102BB00090160020164AD07929280FD02A280DD047
:102BC000322802D0352821D108E0106AC189D1818C
:102BD0006030807F012801D1491ED18170B501206C
:102BE00090700C4C0026E670FF2020700A4D667035
:102BF0002868002804D06868FEF720FB6E602E600D
:102C00000222A11CFF2006F03FFC70BD70470000AF
:102C1000A002002018150020F402002001480068DE
:102C200070470000500300204248817800297FD07F
:102C3000F8B5C07928380E2869D20100794409799D
:102C400049188F44066666066464646464646606B4
:102C50000666394EF1787078814258D002462032AB
:102C6000914201D9202403E0081A0406240E4ED014
:102C7000324F31783A68507A431ADDB2937A181A93
:102C80004019C3B2A34226D25118C0B20246301D29
:102C90000B31FFF7FEFB601BC4B2796838688842CD
:102CA00016D0827A407A0B31101A4019C0B28019BE
:102CB0002246001DFFF7EDFB3868817A407A081A3A
:102CC000201A3070786838600068002800D078607A
:102CD0006019C4B212E051182246301D0B31FFF7C3
:102CE000D8FB307800193070AC4207D1002030702A
:102CF000786838600068002800D07860002C06D022
:102D00002146301D05F062FF707800197070F8BD23
:102D10000EE00B4CE0786178401A1028F7DD6A204D
:102D200006F0F2F91028F2D3102001F069FAF1E769
:102D300070470000A0020020F4140020FC020020D4
:102D400018150020F0B5FF4987B048790A46177971
:102D500084460C2864D08A69FB48567800965568EA
:102D60000068854200D0F2E30846017A69180172D2
:102D7000107802287ED2F34C00287CD0F34E3078B5
:102D800005F0B6FEE57AA17A28464D406840E0722B
:102D9000C0070BD0A80609D51C22ED49ED48FFF766
:102DA00078FB0422EC49ED48FFF773FBE07A8007DB
:102DB0000BD5680609D50C22E949EA48FFF769FBFB
:102DC000E5490422081FFFF764FBE07A4007400E44
:102DD0006072E1893078091AE181E1694B68181A5B
:102DE0004860A16900200870307848607D21414327
:102DF000236FCA17656FC9186A4162672167DA498C
:102E00000A79D206D20E0A71D8490B6818180860E0
:102E1000C878EF2800D82FE20007000FC8702BE217
:102E2000CA7A887A5040430757D04240CA720C464B
:102E30004F7103F0B5FAA0690122C44D02702A78DF
:102E40004260E069FF220270817821710C22827059
:102E5000E07A4107490E6172C1071BD01C22BC49B0
:102E6000BC48FFF716FBBC490422081FFFF711FB03
:102E7000052101E046E24FE0A0694170E069417040
:102E8000B449097A0A07BA49120F895C2A78891865
:102E900041601DE0810711D5B1490C22881AFFF766
:102EA000F8FAAD490422081FFFF7F3FAA0690621DA
:102EB0004170E0694170AB49898808E0400707D557
:102EC000A06907214170E0694170AA49C988416041
:102ED000287805F00DFE07B0F0BDA74C0A6F486FCB
:102EE0001219002358410A6748679F48192201793F
:102EF0009201C906C90E01719C49086880180860D2
:102F0000C878EF2802D90007000FC870FDF740FE0F
:102F100005F0A4FC07B0F0BD022005F0E9FD07F0C4
:102F2000CBFF9648017AC02001436B2006F058F988
:102F300005F0B0FEA069924D4778052F7AD2384649
:102F40008821904E484380192062FF2005F0A8FC9C
:102F5000E079002840D00120FEF7DAF8216A042247
:102F60007A20091D06F0F6FA206A7521095CA17124
:102F7000027F2E30105C08F029F9206A027F2E3083
:102F8000115C8148405C05F061FC206A027F417E53
:102F900052187E498A5C0277083005F013FB206ADC
:102FA0006030407F022833D0002005F00DFD05F091
:102FB000D9FD03F0DDF90098042800D35CE18821F5
:102FC00048438619009872498000F77A08583906F4
:102FD00023D500281ED020E0216A0320085605F0E2
:102FE00065FC042F03D203F07DFA282002E003F0F1
:102FF00087F93220E071E089801EE081E069416854
:10300000891E4160A0690321017002214160A5E78A
:103010000120CAE7009803F001F80C210F400028B6
:103020003DD00179EF2927D1C17A002903D00129A8
:1030300022D11AE03EE0217A4A0706D04A07520F11
:103040000A21891A226A918402E0226A0A21918463
:10305000216A8A8C4273898C090A8173718BB28DC3
:1030600008318A4208D9C18205E0718BB28D0831DE
:103070008A4201D94182B18500984649C000411871
:103080004968002904D1444940184068002801D00B
:10309000102007433946009802F03CFC08E039460E
:1030A00001200143A9700021E970A81C05F0ACFBC8
:1030B000F772E1E0394805F085FA042238497A20B0
:1030C00006F048FA00219B2006F08AF8252005F03A
:1030D000E7FB344E052F05D0062F6ED0072F6DD09D
:1030E00000BFC9E01B4F88217878264A41438918E0
:1030F0002162617AC90606D405287CD202F00AFF53
:1031000005207870CCE0E079002801D00220D3E0DF
:10311000104F0220385605F0C9FB03F0E3F9387868
:10312000305C08F053F83878315C1748405C05F0A3
:103130008DFB39780948405C3870387AA8700707E9
:103140003F0F31E0A0020020540300204B03002079
:1031500014110020B8100020DC020020D80200204A
:103160007C1100207011002010030020500300206B
:1031700047BA0000BC140020400D0300FA190020DB
:10318000F414002088110020071A0020BCBA0000A7
:10319000A81400203014002058140020D40200206D
:1031A000D002002030BA0000012F08D0E07A0007DA
:1031B00008D5FF48FD4EC07E07E02FE062E0FD4EDF
:1031C0000C2002E0FD48FC4EC07EE870A81C05F013
:1031D0001BFBFB48407A00281AD0FA4805F0DAFCBD
:1031E000002005F0F1FB022F14D005F0BBFC0B20F2
:1031F000E071304600E053E005F0C0FCE069416852
:10320000891E4160A069032101700221416033E001
:10321000ED48E3E705F09AFC0A20E9E7607A8006CA
:103220003ED5E079002801D0032045E0E74F0A2091
:10323000385605F03BFB03F063F83878305C07F054
:10324000C5FF3878315CE248405C05F0FFFA0020A9
:1032500005F0BAFB787800280FD01420E0710C201C
:10326000E87005F07FFCE0694168891E4160A06953
:10327000022141600321017063E21520E07105F035
:1032800065FC82E3D34F88213878D34A41438918BB
:103290002162617A49060BD4FF2801D202F03AFE7E
:1032A00005F0ECFC03F0BEF803F0ACF807B0F0BD9D
:1032B000E079002803D00420FDF72AFF41E2112025
:1032C000385605F0F3FA03F01BF87878305C07F015
:1032D0007DFF7878315CBE48405C05F0B7FA1E206F
:1032E000E0712220E870002005F06EFB05F03AFC4A
:1032F000E0694268921E4260A06902224260032295
:1033000002701EE2B549FF287DD00F46032812D176
:10331000012005F0EDFBB248007866281DD0B148C9
:10332000407A8106890E772005F05AFFB86901219D
:10333000416002210170B869407805287ED20428D6
:10334000F8797CD2283806287AD2010079440979A4
:1033500049188F440E12120E2BE7A348A14A017997
:10336000527A1143017101460522732006F0F2F8EA
:10337000DCE7F889401EF8816CE3F96948680128A8
:1033800005D0FA89521EFA81401E48606DE32C2058
:10339000F87105F0DBFB07F08FFD386A0C22C17A6B
:1033A0001140C172B869407801F058F8F869406876
:1033B00005F09EFBB86986784078009003F006F827
:1033C000FC890025386A014680318A88438A9A42FE
:1033D0005DD2CA887D2109028A4258D201784029EB
:1033E00014D1418B828D491991420FD10621017070
:1033F000018CC183818C0A2251430C19014606229B
:1034000026310E3000E054E3FFF743F80C2E2BD2A8
:103410007648F1000818F8614168A1421ED300788F
:10342000022809D2002C07D00020F8817048091B1F
:103430000078273081422AD8386A02E0B9E17AE080
:1034400077E0C089041902F093FF386A017F427E59
:103450008A1868496D1C895C0177EDB2F86941688A
:103460008678641AB861ADE7002C0CD1386AC4893B
:1034700002F07EFF386A017F427E8A185D496D1C2A
:10348000895C0177EDB200206D1CF881EDB2386ADD
:103490007D2201468031CB881202934205D32D2133
:1034A000F9712221203081704BE18988428A914252
:1034B00024D2428B012352194283B969387988702A
:1034C0004A4AC0008018B861037044608078C00028
:1034D0008018F86181783971867025224260FF2258
:1034E0000270B96900984870F969487002F04CFCA4
:1034F000386AC189F8890818F881AAE22D21F97182
:103500000178032902D0422908D103E03E2120306E
:1035100081709EE22221203081709AE208212030C1
:10352000817096E2F869406805F0E2FA02F04EFF19
:103530008FE20520C0E6323806287DD201007944AA
:10354000097949188F44050404051002EAE7FDE3F0
:103550000FE7F9694868032800D012E705F0F6FA8A
:1035600007F0AAFC3620F8711C4DE869406805F0A8
:10357000BFFAA8698078019002F028FFED8902F077
:10358000E9FE064600271548006A014680318A8810
:10359000438A9A427ED2CB887D2109028B4279D21E
:1035A000017880293ED1418BC91925E030110020D6
:1035B00034110020C3100020D4100020D8100020A7
:1035C000B8100020E50200208E02002070110020BB
:1035D000071A0020BC14002088110020A00200203F
:1035E0008C020020FA190020100300201C16002075
:1035F0004B030020BCBA0000828D914212D10621FB
:103600000170018CC183818C06224D19014626313F
:103610000E30FEF73EFFFA48006A2030C078A8421C
:1036200000D9054601980C2845D2C100F548081874
:10363000F349C861416800E0B9E08C46A94232D341
:103640000078022816D2F04801787318D81CA842D6
:1036500010D2EB4AEC1AD08170004618106AE41EB2
:1036600001782736022901D1C07A86196046401BAD
:10367000B04258D8E24E306AC089451902F078FE4F
:10368000306A017F427E8A18E049895C0177716A5D
:10369000B06A00E047E00918DD487162C078801C1C
:1036A0007F1CC6B2FFB2D649C869837801934368CC
:1036B0008861ED1A67E7D44C207831180831A942A7
:1036C00002D3291A08398EB23018C01CA84216D36A
:1036D000CB4E306AC089451902F04AFE306A017F3C
:1036E000427E8A18C949895C0177B16A706A4018BC
:1036F0007062C748C078801C7F1CC6B2FFB22178B8
:10370000BF4B70182C1AC01CD8817000401827308D
:1037100086B2186AE41E0178022902D1C07A8019A3
:1037200086B27F1CFFB2B64D7D22286A1202014686
:103730008031CB88934205D33721E9712221203093
:103740008170B2E18988428A914226D2418BAD4A8A
:10375000C9194183A96928798870C000801801219E
:10376000A861017044608078C0008018E8618178A9
:10377000297101998170FF2146600170A969009843
:103780004870E96900984870009802F0FDFA286ACC
:10379000E989C0894018E8815BE13721E971017846
:1037A000022900D1B2E6422900D0B7E6B2E60620EF
:1037B00082E5052805D0062875D0072874D0092091
:1037C0007AE5F8790C2870D00E2806D00F286DD035
:1037D000F969486801286AD0EAE0F869406805F0AC
:1037E00087F9B8698078019002F0F0FD386A00210D
:1037F00083898181DB1D02F0ADFD834900220978B8
:103800000091273103917E49896A02917C49096AB6
:103810000E468036B4466546AD8806954E8AB5425A
:1038200072D2019D0C2D43D2EE00764D7519744E67
:10383000F5616E6805969E422ED32E78022E13D225
:10384000009E86190496F61C9E420DD26C4F049C75
:10385000FE81CE7A40003018039E1C1B8019059E05
:10386000E41EF61A86424FD8C889CE8BC318069834
:10387000634F80196646B080087F4E7E8619634884
:10388000805D0877786A029E801978626048C07807
:10389000801C521CC0B2D2B2AE7801966E689B1BDF
:1038A000574EB561B7E773E0BDE066E060E06CE0FD
:1038B000009C0419E41C9C4218D3C889CD8BC31802
:1038C000604680884E4C40196546A880087F4D7E32
:1038D00045194E48405D0877606A029D4019606254
:1038E0004B48C078801C521CC0B2D2B2009C521C03
:1038F00005195C1B424BED1CDD81CD7A40002D1873
:103900000398D2B22818E41E6546AD884E8A3C4B17
:10391000B54226D24D8BAA184A839A6919799170BB
:10392000384DC9004919012299610A704C608978A3
:10393000C9004919D9618A781A71019A8A70486058
:10394000FF20087033489A6941785170DA694178EC
:10395000517005214170186AD989C0894018D881F1
:1039600001E00120087002F01BFD0F20D871F1E387
:10397000F869406805F0BCF807E0F9694868012873
:1039800016D105F0E3F807F097FA02F01FFDE1E326
:10399000F8791438052844D2010079440979491886
:1039A0008F44028316161600F9694868062804D069
:1039B000401E486000F002FCCCE305F099F805F0E9
:1039C000C5F807F079FA02F001FD1820F871C1E39B
:1039D000F8694468062C21D0072141600846E41F9D
:1039E00005F086F802F0F2FCF869002802D0416880
:1039F000091941600848018909190181AAE30000F9
:103A0000A00200201C1600204B030020BCBA0000BE
:103A1000C4020020B81000207011002000240620ED
:103A2000DEE7072048E4F8791E2818D01F2811D0B7
:103A3000202803D0212822D008203DE42120F8713D
:103A4000F869406805F054F802F0C0FC386A018A51
:103A50008181E6E2F8694168491E416005E0F96943
:103A60004868052804D0401E486000F0A7FB71E3B9
:103A700005F03EF805F06AF807F01EFA85E7F869E8
:103A80004468052C12D0062141600846A41F05F0A9
:103A90002FF802F09BFCF869002802D04168091950
:103AA0004160F74841880919418053E3002405200B
:103AB000EDE7F448052EC0792AD2F24933280CD01C
:103AC00006DC282809D02B2807D02D281BD108E098
:103AD000342802D0372816D103E00A20FDF718FB5E
:103AE00013E0086A20308478FDF70EFCC4728672F9
:103AF00063210171042105F043FE304602F04AFBC8
:103B0000304602F007FA02F061FC02F07BFC0AE0AA
:103B1000052E10D0DC490091062E75D0072E74D0EA
:103B20000C20FDF7F5FAD74C0020E07105F09CF869
:103B300000286BD0D9E1D34C0D2802D00E2805D136
:103B400001E000BF02E00B20FDF7E2FA607AC00658
:103B50007ED5CE4F387A0107CD48090F415CCD485C
:103B60000078801C0818C1B2C64880698478009427
:103B70000C2C21D238787E698446C748E2001018A0
:103B8000C04AD0610278022A0DD242688A420AD322
:103B9000521A6346002B03D0BA48C06942600BE05A
:103BA000BB699E42F8D3B74A84789061BA6940688D
:103BB0001018B8610C2CE0D3B24E891EB06933796D
:103BC0008370012303703079C9B2C200B248101863
:103BD000F061827832718470052241604270FF2268
:103BE00002700C2C1AD100980C2817D178693A462B
:103BF00033280CD01378002B0BD0FF224132904297
:103C00000DD35022551A0AE054E0D8E06BE111229E
:103C1000F8E7BA69904201D9851A00E00125B06938
:103C200069184560B8694018B8613878002807D12C
:103C30007869332801D00020B8619848007838703E
:103C40000521B869C902884218D37878800000E05D
:103C500021E0934D0421285805F092FD7978002049
:103C600089006850707AEF2108407072F07A40083D
:103C70004000F072B07A40084000B07200980C2802
:103C800004D0A04202D0707102F08AFBB069406893
:103C900004F02EFF47E77D4C6078052803D202F040
:103CA00039F90520607004F0E9FF02F08FFB02F0A3
:103CB000A9FB38E7734C152801D0172801D107F06C
:103CC000FBF8607A800672D576480089122803D303
:103CD0007449801C498801E014200021A26926460D
:103CE000947822460C2C25D277796B4BD500EB18B3
:103CF000F3611D78022D12D26A4D6D888D420ED867
:103D00005D68142D0BD35D68854204D02D1A6D1C9F
:103D1000801E5D600EE0A81E01255D600AE09A78B5
:103D2000142801D15B685918B5690C2AAA70F36987
:103D30009F70DAD30C2A02D10C2C1ED01220594FBE
:103D40007B888B4200D9591A334600E015E29D6901
:103D50003679AE7001262E70491C69601979CD0044
:103D60004D496918D9618D781D718A7048603D8907
:103D7000854205D9281A38810BE04A488088DEE759
:103D8000B88838813D7800982D5C3D70002D00D1B9
:103D90003E7006204870FF2008700C2C01D0944221
:103DA0006CD19869406804F0A3FEBCE6FFE73D498A
:103DB0000020087002F00AFB02F024FBB3E6314B4E
:103DC000587A40065BD52E484088122803D32C49E8
:103DD000801C898801E01420002194781E46224628
:103DE0000C2C25D22C4BD500EB18F3611D78022D3D
:103DF00012D2234DAD888D420ED85D68142D0BD3A1
:103E00005D68854204D02D1A6D1C801E5D600FE038
:103E1000A81E01255D600BE09A78142801D15B682B
:103E20005918B5696346AA70F5690C2AAB70D9D3E5
:103E30000C2A02D10C2C1ED01220114B9B888B42D5
:103E400000D9591A0F4B01259B69491C9F701D70A1
:103E500059600C490979CB000F495918094BD961B0
:103E60008E781E718A70064E4860738883421BD913
:103E7000181A708021E00248C088DEE727E02AE0B7
:103E8000BC140020A002002022BB0000B8100020BB
:103E900047BA00004B0300201C160020D802002067
:103EA0007C16002070110020F08870807078009BD4
:103EB000C05C7070002800D1757007204870FF202A
:103EC000B24B08700C2C00D16BE79442FCD05C71B3
:103ED00002F066FA65E7AE490020487002F076FA13
:103EE00002F090FA1FE606F0E7FFA06901780229C8
:103EF0003BD24078052838D288214843A549461846
:103F000035466035687DA071800729D0314618227A
:103F10005831832005F01EFBA069417880200429D8
:103F20000FD2297D052201432975314670317E204B
:103F300005F010FB05F050FB287D4006400E28756B
:103F40000EE0297F052201432977314678317E2012
:103F500005F000FB05F040FB287F4006400E287767
:103F6000A0798007800F04F01FFBA0694068022839
:103F700001D2FFF79BF9E07AA27A0146504042074E
:103F800051D04140E1724907490E6172C2074BD0DE
:103F90001C2281498148FEF77CFA0422804981482D
:103FA000FEF777FA607A1021084360727B48007A46
:103FB00001077D48090F415C7C480078801C0A1885
:103FC000E06981780C2912D2794DC8004019E0616E
:103FD0000378022B07D24368934204D343689B1AA9
:103FE0005B1C436003E08178A0610C29EDD3A369D9
:103FF000207998706E4DC00040190123A0610370B4
:1040000043608078921EC0004019E061837823717C
:104010008170FF2142600170A16905204870E1694B
:10402000487002F0BDF995E0820750D5400609D5E9
:104030000C2260496048FEF72CFA59490422081FF7
:10404000FEF727FA607A2021084360725A4DE06932
:10405000AA888178921C0C2919D2554EC800801963
:10406000E0610378022B0ED24368142B0BD3436814
:10407000934204D09B1A5B1C921E436007E09A1E79
:104080000123436003E0A06181780C29E6D30C2969
:1040900000D11222A36920799870454EC000801982
:1040A0000123A061037043608078C0008019E06143
:1040B00083782371817042602989891A2981FF21BF
:1040C0000170A16906204870E1694870A9E74007BE
:1040D00040D5402001432E486172C288E069921C9D
:1040E00081780C2919D2324BC800C018E0610578DC
:1040F000022D0ED24568142D0BD34368934204D091
:104100009B1A5B1CD21A436007E09A1E012343608E
:1041100003E0A06181780C29E6D30C2900D112229A
:10412000A36920799870224DC00040190123A06135
:10413000037043608078C0004019E0618378237188
:104140008170FF2142600170A16907204870E16918
:10415000487066E70D4C60790C2800D109E7A0692A
:104160004068032801D3FCF713FDA069406850287C
:10417000F4D904F073FB07B0F0BD854202D9281AC8
:10418000506000BF00BF07B0F0BD0000A0020020DB
:10419000BC1400208811002014110020B810002049
:1041A000DC020020D802002047BA00004B030020A8
:1041B0001C1600207C1100207011002010B40D4846
:1041C0007D24026F416F1219002359410267416734
:1041D00009480179C906C90E017108490868401CDF
:1041E0000860C878EF2802D90007000FC87010BC1B
:1041F00070470000A00200201003002050030020A0
:10420000002871D0F8B5044690488F4F057838469D
:1042100003688E48061D4278C0789119FF2D04D09E
:10422000904201D9002B08D1F8BD002856D0002AB1
:1042300008D09042F8D9002BF6D02246FF2005F096
:1042400023F942E00090FDF76FF8054678602800FA
:104250007E4828D0407822468119FF2005F014F9C5
:104260007822292100203D602A7168722872009B03
:10427000002B06D0292B1AD9A972009B293BDBB24F
:1042800000932D68002DEED1704DA9788907890F14
:10429000012910D06E4B7A681A6079680968002984
:1042A0000FD059600EE0C178417000201AE0AB7267
:1042B0003D602860E8E766483968016079684160D8
:1042C00001E05A602870002CAED005F085F9254633
:1042D000292C0AD92824283DEDB208E0002AF4D17F
:1042E000002078603860F8BDACE02C4600255748C7
:1042F0000078FF283FD0564B1A68917A507A814255
:1043000036D0091ACFB201192929504949787DD9E7
:104310000B30101889193A46FEF7BBF84C48016873
:10432000487AC01948724A484068814210D0E11B5F
:10433000CAB2009145493F1D4B780B305918C91935
:10434000434FFEF7A6F878680099427A51184172F7
:104350003F490868827A407A824205D1486800283D
:1043600002D00860006848603848417809194170F7
:10437000002DADD1F8BD3748374980694078C0007D
:1043800042185268002A4AD00858827A2F48417849
:104390005018C0B20219292A08D22D4A0B301268CF
:1043A000891910182246FEF774F8DDE729281CD277
:1043B0002922274B171A1B680B30FAB289191818D3
:1043C000FEF767F8E01BC0B2009020483F1D41781F
:1043D000009A0818C1191E4840680B30FEF759F8BA
:1043E0001B490098496848720CE0201A2930C7B26E
:1043F0001748891940683A460B30FEF74AF81448C6
:104400004068477212494868002800E00FE002D077
:104410000860006848600D4800210170A4E70A4F59
:104420007868FCF70BFF002078603860A0E70B305D
:1044300010188919064F2246FEF72BF83868417A82
:10444000091984E770470000F402002018150020C5
:1044500004030020A00200208014002010B4074BA9
:10446000820098580021002805D0047A002C02D040
:1044700001720068F7E7985810BC7047A814002034
:10448000F8B50026164D840028593746002817D065
:10449000017A00291FD0427A8A4205D9D1B2027A24
:1044A000891A417207720BE047720772016829513D
:1044B000002907D0FCF79CFE2859017A0029E5D194
:1044C000002E0CD00179E62903D0EF2905D0F02980
:1044D00005D1422102E00020F2E703214172F8BD3C
:1044E000A8140020F0B5F84D89B0A8694678284690
:1044F000C179052E00D3EBE300248470F34A006AEF
:104500009578D27803469446024640338032042E92
:104510007DD22C27283905292ED20E007E443679EB
:10452000B619B744022F2F02F8000078E64C822813
:1045300024D02A20E071D87C002804D004F006FBA7
:1045400006F0BAFCE7713821E06900F0DDFF0028D1
:1045500004D004F0FBFA06F0AFFCE771A079800705
:1045600005D5216A05227E20783104F0F3FFA07979
:104570008007800F04F018F809B0F0BD06F09CFC2D
:104580002D2074E369460D7063464B70C57A0C218B
:104590000D400178CC4E032906D10421017094808E
:1045A000D480418D002541822C20F07104F011F857
:1045B00000281CD00322C649A62004F065FF6846E7
:1045C0000078C4490007870F28463843085C410635
:1045D0002ED568464078002826D06A2004F094FD45
:1045E000FFF70EFEBC484068002815D01CE006F01E
:1045F00063FCB94F3868002804D07868FCF71EFEC9
:104600007C603C60306AC572B069407800E04EE181
:10461000FFF724FF09B0F0BD69460878EF21084094
:1046200069460870AD48C75DAA483D43455D00E056
:104630000546680611D56846407800280DD0B07947
:1046400080070AD5306A816F491C816705D16030C7
:10465000017F491C4906490E01779B48006A017891
:10466000062903D104210170418D418200262806CC
:104670009548806940787DD5FFF702FF0190924808
:1046800080694078810096484158019808431BD0C2
:10469000002907D10198467A202006430198C77A5D
:1046A000FCF7A6FD88488179C9070DD0019900293A
:1046B0000AD0006A016F491C016705D16030017D95
:1046C000491C4906490E01757F488069407801F010
:1046D000A5FC01907C485321006A095C00290ED199
:1046E00069460978CA062B21002A02DA7648C17188
:1046F00009E0C07A744AC00601D5D17103E072485E
:10470000C0792C2808D070482621C06900F0FCFE32
:10471000002833D103E049E106F0CEFB38E00198F0
:10472000002809D068496F4B88694278D000C318C7
:104730005B68002B10D10AE001202843C1066A48BB
:10474000C90E8170C470801C04F05EF820E0674BD5
:10475000C0184068002801D01020054329461046A3
:1047600001F0D8F8002813D15748806940788100BB
:104770005B4800E008E04058002809D006F09CFBA8
:1047800051492C20C87103E0FFF768FE06F094FB46
:104790004D48B106006AC57255D5F14389070DD061
:1047A000700650D5484880694678FCF7ADFD642115
:1047B00001718672042104F0E3FF44E00178424E67
:1047C000042904D14A49C95D017086210C52032F86
:1047D00023D004DC002F2AD0022F31D104E00B2F8C
:1047E0000CD00C2F2CD11CE006F066FB2D20F071B4
:1047F000316A16202031887009B0F0BD02215322A1
:104800001154046760300475FCF77EFDEA210171E4
:10481000B16949780172002110E001214030C17472
:104820000EE001788C290BD10421017008E0B069F9
:10483000304A4078810050585450042104F0A0FFC1
:10484000F0792D28D8D0680629D568464078002808
:104850000CD01D4DA879800708D59B2004F054FC8E
:10486000C0060CD568460078800708D0164D009920
:10487000A869407800F06EFEB02808D00FE006F07E
:104880001BFB296A3D20203188702D20FEE3286A19
:104890000078822803D006F00FFB2D20E8710A4D26
:1048A000286A8030848003F0B5FE296AD5E10126AC
:1048B0000196054E3229F6691ED0332974D0342969
:1048C00073D0352972D126E0A002002018150020EF
:1048D0004D03002046BB0000F402002034BA000063
:1048E000A814002030140020F414002058140020D4
:1048F0008ABB00007C1600206F463D706146FA4B73
:1049000079705C62D178C08B8A00F8498958484335
:104910009862002001901521F34F304600F0F4FD1D
:10492000002805D006F0C8FA3620F87109B0F0BDAD
:104930000198002805D0EE486A4681781170C07849
:104940005070386A0C21C57A0D400178022908D1CF
:1049500004210170014680318C80CC80418D00257E
:10496000418203F036FEE049002808701FD0032280
:10497000E049A62004F088FD68460078DE4F000775
:10498000860F28463043385C410637D56846407864
:10499000002830D06A2004F0B7FBFFF731FCD7487D
:1049A000406800281FD026E05AE18AE149E2D44855
:1049B000FB218570C1700026801C03F025FFCA4FC3
:1049C000B8694078FFF74AFD0190386AC572342013
:1049D000F87154373868002876D07868FCF72EFCD8
:1049E0007C603C6070E069460878EF2108406946C9
:1049F0000870C448865D35437D5D00E00546BA49D0
:104A00003422086AC572CA716A461278D20601D584
:104A10003322CA710178062903D104210170418D26
:104A20004182B748FB218570C1700026801C03F0CD
:104A3000EBFE2806AC48806940783CD5FFF720FDA6
:104A40000746A948806940788100AF4841583846F8
:104A500008431AD0002907D17E7A20200643F87A2D
:104A600002903846FCF7C4FB9F488179C9070CD0F7
:104A7000002F0AD0006A016F491C016705D1603020
:104A8000017D491C4906490E0175974880694078A7
:104A900001F0C4FA0190680616D5684640780028EF
:104AA00012D09148817989070ED5006A816F491C1F
:104AB000816703D008E0FFF7D1FCEBE76030017FAE
:104AC000491C4906490E01770198002824D0864FD9
:104AD0003878002810D0B8698C494078C000411857
:104AE0004968002904D18A4940184068002803D049
:104AF000102005433320F871B8692946407800F04A
:104B000009FF002835D1B869407881007E484058B7
:104B100000282ED0342026E001202843C106784802
:104B2000C90E8170C470801C03F06EFE6E4F386A2F
:104B3000028A002A1DD08189914219D26A0614D5B1
:104B400069464978002913D1290603D48421095ADA
:104B500000290DD006F0B0F9386A8189491C81819D
:104B6000803084803620F87103E00029F2D100E023
:104B70008481B0063727002842DAF04380070DD041
:104B800070063DD5584880694678FCF7BDFB642126
:104B900001718672042104F0F3FD31E0524E306A57
:104BA0000178042905D15B49029A895C017086214C
:104BB0000C520299022906D006290DD00B2910D0DB
:104BC0000C291AD114E006F077F9306A162120304A
:104BD0008170F77109B0F0BD53210C5404210170AC
:104BE0000BE002215322115404676030047504E085
:104BF00001788C2901D104210170F0793728E9D09E
:104C0000394E30780028E5D0680620D568464078CF
:104C100000280BD0B079800708D59B2004F074FAE7
:104C2000C0060BD568460078800707D0B0690099A8
:104C3000407800F08FFCB02806D008E0316A3D20B3
:104C400020318870F771A8E206F036F9F771306A02
:104C50008030848003F0DEFC316A487709B0F0BD13
:104C6000D87C214C002805D006F026F93620E071CA
:104C700009B0F0BD2621304600F046FC002805D0E2
:104C800006F01AF93620E07109B0F0BD3520E07168
:104C9000A079800700D46AE4216A80230846603046
:104CA000027F78311A43027705227E2004F052FCFD
:104CB00004F092FC206A6030017F4906490E0177BA
:104CC00055E406F0F9F808493620C87109B0F0BD7E
:104CD0000F24B027052E1FD0062E7DD0072E7CD0A6
:104CE00000BF09B0F0BD0000A00200209CBA000087
:104CF000181500204D03002046BB0000F4020020E0
:104D0000F414002034BA0000A8140020301400204D
:104D1000581400208ABB00000A2907D00B2908D0AC
:104D20000C290AD00D29DCD106F0C6F8EC7109B0C7
:104D3000F0BD0C20E87109B0F0BDFE48C47103F06D
:104D400048FC00287DD002226946FF2004F09CFB2D
:104D5000F94E307A05072D0FFCF7D6FA044601907C
:104D60000834077122222146FF2004F08DFB68469B
:104D700000780007000F03287ED005287DD106F0BB
:104D80009BF8002D02D0012D0DD007E1B07C032847
:104D900001D0022818D16A461078019903F0A0FFCB
:104DA00000286AD110E0684600784006307A02D4C4
:104DB000000662D401E000065FD50622DF492046E6
:104DC000FDF723FB002858D168460078019903F0CD
:104DD0006DFF002851D101E0ECE0D8E1D6484578DC
:104DE00068460078400605D50121D548AA008058BC
:104DF000417304E00021D248AA0080584173D04892
:104E0000AF00C35921461846062216311430FDF76B
:104E100040FBCB480021C05926468172203670786D
:104E200006224109C648C059817670784109C148B7
:104E3000006A8030C170C2482146C35918460E30FE
:104E400000E024E1FDF725FBBD480421C05904F032
:104E500097FCBB480021C151B648C178002901D058
:104E6000491EC170B34F2146386A15220C31001D0E
:104E7000FDF70FFB252201E053E08FE0386AB149CE
:104E80002E30FDF7A9FA00207862386A0346803395
:104E9000D9789C468A00AC490A238958C28B4A4378
:104EA000BA62E17C0A225143C9B2C1727278D20659
:104EB000D20E42767278D206D20E027702220270A9
:104EC00082895A438281428A6346D2004285C289DE
:104ED000C28394009C800A235A4392B20B46C2813B
:104EE000083342829A4201D12239C172FCF70CFA8E
:104EF000E92101710572002104F042FC8E48396AF3
:104F00008078C870787AEF2108407872F87A400883
:104F10004000F872B87A40084000B8720E20F8716C
:104F20003CE0002D01D0062D38D104F055FBB07CBB
:104F3000012801D0032806D168460078019903F0C2
:104F4000CFFE00282AD168460078019903F0AEFE12
:104F5000002823D1307A774D010909017B48091DCA
:104F60008170E97AC90605D579497A4CC97E891DCF
:104F7000C17004E07849704CC97E891DC1703C3411
:104F8000801C03F041FC707A002811D0734803F0B4
:104F900001FE204603F0F2FD0D20E871002101988A
:104FA00004F0EEFB6348C0790F2870D009B0F0BD63
:104FB0006B48ECE718206B4E142927D0152967D0D1
:104FC000162966D01729F1D1E87105F075FF03F0B5
:104FD00000FB0028EAD05820FBF7EAFF0028E5D1C3
:104FE00002226946FF2004F04FFAFCF78DF90146D2
:104FF0000446077125220831FF2004F045FA68466F
:1050000000780007000F04287ED1B3E0E87103F0B8
:10501000E0FA00283BD05820FBF7CAFF002836D121
:1050200002226946FF2004F02FFAFCF76DF90146D1
:1050300007710446083125220F46FF2004F024FAA8
:10504000F07900280BD004F0C7FA684600782146B2
:1050500003F046FE002802D005F02EFF69E0694605
:105060000A7800201107090F05D0012927D002294D
:1050700025D00629F0D1510600D58020B17900292C
:1050800001D0402108430321084303E07CE084E091
:105090001AE076E02D498870881C03F0B5FBB079E2
:1050A00000280FD02D4803F075FD1620E871384612
:1050B00003F064FD2146009801F0D8F939E005F0CD
:1050C000FBFEF7E72648EEE7E87105F0F5FE03F092
:1050D00080FA002800D169E75820FBF769FF002813
:1050E000F9D102226946FF2004F0CEF9FCF70CF951
:1050F00001460446077125220831FF2004F0C4F957
:10510000F07900280AD000E038E004F065FA68463B
:105110000078214603F0E4FD00280AD168460078B3
:105120000007000FC6D00128C4D00228C2D006282C
:10513000C0D019E0A0020020B8100020C310002049
:105140007C160020BCBA00009CBA0000F4140020B9
:105150005411002014110020F8100020E502002056
:105160008E020020701100200021204604F008FB70
:1051700009B0F0BD2146009801F078F900212046E1
:105180006BE003F0E3FC1720E87109B0F0BD1E29C5
:1051900007D01F29F9D12020E87105F08DFE09B054
:1051A000F0BD2120E87103F014FA0028F5D00222A6
:1051B0006946FF2004F068F9FCF7A6F80190077132
:1051C00001980C220830029001460590FF2004F05F
:1051D0005BF96B461E783007000F01D0012838D1EB
:1051E00004F0FAF9BC4C207A002821D068460078F7
:1051F000019903F075FD00282BD168460078400620
:1052000006D5217801208A00B4498958487305E001
:10521000217800208A00B1498958487320780622F5
:105220008100AE48405802990E30FDF732F918E07F
:10523000700601D5012700E00027607AB84206D148
:105240000622A7480299FDF7E0F8002809D0062FAA
:1052500007D005F031FE0021019804F091FA09B061
:10526000F0BD687ABF2108406872E97AFB200140EE
:10527000E972A97A0140A9721F20E871700601D570
:10528000852100E00521207C002801D04020014339
:1052900094488170801C03F0B7FA8F48007C002886
:1052A00024D0914803F076FC019802990E30062232
:1052B0000790FDF7EEF88D4A10680F3040080302A2
:1052C000010E1B0EC91803041B0EC0B218180818D3
:1052D0000104090E4018C1B20809002909D0844C04
:1052E000235C8B4204D22018407802E08148D9E741
:1052F0001846401A4006010E10780122C007D20756
:10530000D04205D0002902D0491EC9B200E01D21BB
:1053100008460F3000220A2901D2002104E0142996
:1053200001D2012100E00221059B1433049319806E
:105330002B6A059EDC7A641CF4740026DE72AC696C
:105340001D46A4788035A44634460395AD8806955D
:105350005E8AB5425CD265460C2D37D2EE00664DB2
:105360007519664EF5616E680296864226D32F78CF
:10537000624E022F07D2002805D00027F781029E37
:10538000361A252E44D81E32DE8992B2964212D8A1
:10539000911B8AB2DE8B069980188919039EB18011
:1053A000197F5E7E8E195649641C895D19770499B0
:1053B000E4B2097802E0C91CC9B21E30AE784F4F82
:1053C000B4466E68BD61801B039DBFE700281AD1FB
:1053D0001E3290B2DA89824212D80399801A8988E3
:1053E000DA8B80B28918039A9180197F5A7E8A18C5
:1053F0004349641C895C19770499E4B2097802E096
:105400001E20C91CC9B200223C4B641CDA81E4B2E4
:10541000049A3A4D1180296A8422525A4B8A9A4240
:1054200025D24A8B344B12194A83AA692979917083
:10543000C900C9180122A9610A7048608878C000B3
:10544000C018E86181782971614681702521416029
:10545000FF2101702048AA6901785170E96900783C
:105460004870286AE989C0894018E88101E0012074
:10547000087000F095FF296A019807221430091D71
:10548000FDF707F8296A059805221C301431FDF74D
:1054900000F8059806221B491630FCF7FAFF286A27
:1054A000417E059820304170079803F067FB0A4859
:1054B0002A6A417CD1700078084E8400305904215A
:1054C00004F05EF900203051E878002800D1C2E6EF
:1054D000401EE870BFE60000BC1400207C160020CF
:1054E000C6140020F4140020E50200205003002020
:1054F00068BF00008E0200201C160020A0020020C1
:10550000BCBA0000D214002010B4104C8378226A78
:10551000D2895209123252180C2B0CD2D9000C4BE2
:105520004468C9184B68091D1B19934206D99B1A78
:105530000B60426006E0E389934202D210BC012076
:105540007047416010BC002070470000A00200209E
:105550001C160020F3B50804070E880781B0800FE1
:1055600000900198E149C0004518E148016A5320C4
:10557000465C002E0FD00098012804D0022802D0EB
:10558000032845D107E0002F05D03D202031887049
:10559000B02003B0F0BD6A68002A1FD0009801282F
:1055A00002D002281AD10DE0002F19D10021104697
:1055B000837A00685918C9B20028F9D1D07A001D41
:1055C00088420BD10198107269687120087104211A
:1055D000686804F0E3F8002068602860002F6ED04F
:1055E000C4484468002C13D00098032813D0022824
:1055F00023D07820BF4920710B68002B76D0286813
:10560000002874D0597A2926BB4F002970D113E1A4
:10561000B02003B0F0BDE7202071A772019820727E
:10562000E17A192910D8B5487F1E405C874209D11C
:105630000198042803D2B24802E07120DAE7B148A9
:10564000415C00E01A21E172A94D286A02785306F4
:1056500016D5AD4BD75C04238F4201D1037008E00F
:10566000072906D00D2904D0112902D0172910D1FD
:1056700003E0002286231A520BE0562AEED008E0FF
:10568000192906D8A14B042A5A5C16D0042A00D046
:105690000270192973D20A007A4412799218974439
:1056A0000F0F4E545C6C65AC77776F72B48077AC3B
:1056B000AC80ACACACACACAC8A000270E9E70EE1FB
:1056C000002E05D03D2120308170B02020719CE05B
:1056D00000290ED0214605220C311430FCF7D9FEEA
:1056E0002146286A022211312C3006E0F2E0F9E06E
:1056F000A8E021460B220C312330FCF7CAFE286AB1
:10570000818D428B914203D08A1A81498A4205DBFE
:10571000282120308170B020207176E0C18C0246B3
:1057200001842032D3780A267343D370828C71436C
:1057300072438284C184418DC900418565E0217B2B
:1057400020308170B02020715FE00221A971002E0D
:105750005BD101214030C17457E001214422A9717D
:105760000270002E51D14030C1744EE02673A979E9
:10577000C943890701D14030C174032001E03CE0F6
:105780000120A87141E0002181676030017710E0BD
:10579000217B2D2211404170617BC907C90F8170A7
:1057A00033E00178432901D044292ED10021403033
:1057B000C174A97129E098210170214602220E319D
:1057C0002C30FCF766FE286A828D418B8A429FD07E
:1057D000511A4F4A91429BDA217B627B1140890723
:1057E000890F25D06030437F8B4203D08275217BA7
:1057F000C17502E000218175C175002E05D0296AAE
:105800003D2020318870B02020710198042805D2F5
:10581000286A80226030017D11430175286AA979C8
:105820006030417500BF0021204603F0B7FF51E012
:10583000002160308175DBE739688B4202D17A68DC
:1058400091420BD0827A99188018B21AD2B20B30DA
:105850000B31FCF71EFE286886720EE0827A8018F3
:105860009B188A7A19460B310B30FCF712FE286818
:105870003A68817A927A891881721E4E7068417AEC
:10588000002925D03068417A002915D1396888422D
:1058900012D0FBF7ADFC38683060427A3946292ACD
:1058A00008D14A68002A05D002607868002130607B
:1058B000016001E0002101603068417A827A914202
:1058C00000D081722968706808603068286001E043
:1058D000FBF7B4FC0749002048600860277903B053
:1058E0003846F0BD486868600868EFE7801400201B
:1058F000A0020020F402002004030020D8BB000016
:10590000A4BB0000BEBB000016BB000070BB0000C3
:10591000FF7F0000F3B581B00198B7498000009087
:10592000B64E0958316071600879E62810D0EF282A
:105930000CD0F02812D00024B148006A80304078A2
:1059400002091201821A012A0AD00BE00324F3E7AC
:10595000487A8A7A904201D10224EDE70124EBE7EC
:10596000401EC0B2029AA74D2243D206D20EAA70A0
:105970000022EA70012C0CD0022C0AD0032C3ED15C
:10598000887A0872E8708A7A281D0B31FCF781FD4D
:105990001CE00B7A4A7A1F18974206D2DAB2121824
:1059A0000A72E9780818E87010E000280ED0D21AC0
:1059B000EB78801AD218EA704A7A0A720A68C0B282
:1059C000002A03D0316009687160E2E7E8781028A6
:1059D00015D90007000F012811D17068027A092A31
:1059E00002D3093A027207E0316809270B7ABA1A22
:1059F0009A1A0A7200210172E8780938E8707F4922
:105A0000002009680E460A7A4B7A9A4202D29A1A04
:105A10001018C0B2072823D809680029F3D100283C
:105A20001ED0072802D80821081AC0B2E978091A3E
:105A3000102905DD0907090F012901D1401CC0B259
:105A40006E494A68117A814201D3091A04E0337A17
:105A5000411A591A317200211172E978081AE87056
:105A600065490098EF780E58202F00D920276F70D5
:105A7000002562480660327AB07A717ABA4213D24F
:105A8000401A81195F480B314019001DFCF701FDD8
:105A9000307A391ACFB24119CDB25A4908703068FC
:105AA000002810D00646E4E7401A811955483A46C6
:105AB0004019001D0B31FCF7ECFCB07A717A401AEA
:105AC000C119504801704D4A16603068002807D04F
:105AD0004C49B57A0B78AB4202D1106000200870B7
